{
  "contractName": "BH",
  "abi": [
    {
      "inputs": [],
      "stateMutability": "nonpayable",
      "type": "constructor"
    },
    {
      "anonymous": false,
      "inputs": [
        {
          "indexed": true,
          "internalType": "address",
          "name": "account",
          "type": "address"
        },
        {
          "indexed": true,
          "internalType": "address",
          "name": "sender",
          "type": "address"
        }
      ],
      "name": "AdminApproved",
      "type": "event"
    },
    {
      "anonymous": false,
      "inputs": [
        {
          "indexed": true,
          "internalType": "address",
          "name": "account",
          "type": "address"
        },
        {
          "indexed": true,
          "internalType": "address",
          "name": "sender",
          "type": "address"
        }
      ],
      "name": "AdminRevoked",
      "type": "event"
    },
    {
      "anonymous": false,
      "inputs": [
        {
          "indexed": true,
          "internalType": "address",
          "name": "owner",
          "type": "address"
        },
        {
          "indexed": true,
          "internalType": "address",
          "name": "spender",
          "type": "address"
        },
        {
          "indexed": false,
          "internalType": "uint256",
          "name": "value",
          "type": "uint256"
        }
      ],
      "name": "Approval",
      "type": "event"
    },
    {
      "anonymous": false,
      "inputs": [
        {
          "indexed": true,
          "internalType": "address",
          "name": "previousOwner",
          "type": "address"
        },
        {
          "indexed": true,
          "internalType": "address",
          "name": "newOwner",
          "type": "address"
        }
      ],
      "name": "OwnershipTransferred",
      "type": "event"
    },
    {
      "anonymous": false,
      "inputs": [
        {
          "indexed": true,
          "internalType": "address",
          "name": "from",
          "type": "address"
        },
        {
          "indexed": true,
          "internalType": "address",
          "name": "to",
          "type": "address"
        },
        {
          "indexed": false,
          "internalType": "uint256",
          "name": "value",
          "type": "uint256"
        }
      ],
      "name": "Transfer",
      "type": "event"
    },
    {
      "inputs": [
        {
          "internalType": "uint256",
          "name": "",
          "type": "uint256"
        }
      ],
      "name": "_contractAdresses",
      "outputs": [
        {
          "internalType": "address",
          "name": "",
          "type": "address"
        }
      ],
      "stateMutability": "view",
      "type": "function"
    },
    {
      "inputs": [
        {
          "internalType": "uint256",
          "name": "",
          "type": "uint256"
        }
      ],
      "name": "_contractVolumes",
      "outputs": [
        {
          "internalType": "uint256",
          "name": "",
          "type": "uint256"
        }
      ],
      "stateMutability": "view",
      "type": "function"
    },
    {
      "inputs": [],
      "name": "_liveContract",
      "outputs": [
        {
          "internalType": "address",
          "name": "",
          "type": "address"
        }
      ],
      "stateMutability": "view",
      "type": "function"
    },
    {
      "inputs": [],
      "name": "_shootingStar",
      "outputs": [
        {
          "internalType": "address",
          "name": "",
          "type": "address"
        }
      ],
      "stateMutability": "view",
      "type": "function"
    },
    {
      "inputs": [],
      "name": "_shootingStarAddress",
      "outputs": [
        {
          "internalType": "address",
          "name": "",
          "type": "address"
        }
      ],
      "stateMutability": "view",
      "type": "function"
    },
    {
      "inputs": [],
      "name": "_shootingStarId",
      "outputs": [
        {
          "internalType": "uint256",
          "name": "",
          "type": "uint256"
        }
      ],
      "stateMutability": "view",
      "type": "function"
    },
    {
      "inputs": [],
      "name": "_totalNFTSupply",
      "outputs": [
        {
          "internalType": "uint256",
          "name": "",
          "type": "uint256"
        }
      ],
      "stateMutability": "view",
      "type": "function"
    },
    {
      "inputs": [],
      "name": "_universalGravitationalConstant",
      "outputs": [
        {
          "internalType": "uint256",
          "name": "",
          "type": "uint256"
        }
      ],
      "stateMutability": "view",
      "type": "function"
    },
    {
      "inputs": [
        {
          "internalType": "address",
          "name": "owner",
          "type": "address"
        },
        {
          "internalType": "address",
          "name": "spender",
          "type": "address"
        }
      ],
      "name": "allowance",
      "outputs": [
        {
          "internalType": "uint256",
          "name": "",
          "type": "uint256"
        }
      ],
      "stateMutability": "view",
      "type": "function"
    },
    {
      "inputs": [
        {
          "internalType": "address",
          "name": "spender",
          "type": "address"
        },
        {
          "internalType": "uint256",
          "name": "amount",
          "type": "uint256"
        }
      ],
      "name": "approve",
      "outputs": [
        {
          "internalType": "bool",
          "name": "",
          "type": "bool"
        }
      ],
      "stateMutability": "nonpayable",
      "type": "function"
    },
    {
      "inputs": [
        {
          "internalType": "address",
          "name": "admin",
          "type": "address"
        }
      ],
      "name": "approveAdmin",
      "outputs": [],
      "stateMutability": "nonpayable",
      "type": "function"
    },
    {
      "inputs": [
        {
          "internalType": "address",
          "name": "account",
          "type": "address"
        }
      ],
      "name": "balanceOf",
      "outputs": [
        {
          "internalType": "uint256",
          "name": "",
          "type": "uint256"
        }
      ],
      "stateMutability": "view",
      "type": "function"
    },
    {
      "inputs": [],
      "name": "decimals",
      "outputs": [
        {
          "internalType": "uint8",
          "name": "",
          "type": "uint8"
        }
      ],
      "stateMutability": "view",
      "type": "function"
    },
    {
      "inputs": [
        {
          "internalType": "address",
          "name": "spender",
          "type": "address"
        },
        {
          "internalType": "uint256",
          "name": "subtractedValue",
          "type": "uint256"
        }
      ],
      "name": "decreaseAllowance",
      "outputs": [
        {
          "internalType": "bool",
          "name": "",
          "type": "bool"
        }
      ],
      "stateMutability": "nonpayable",
      "type": "function"
    },
    {
      "inputs": [],
      "name": "getAdmins",
      "outputs": [
        {
          "internalType": "address[]",
          "name": "admins",
          "type": "address[]"
        }
      ],
      "stateMutability": "view",
      "type": "function"
    },
    {
      "inputs": [
        {
          "internalType": "address",
          "name": "spender",
          "type": "address"
        },
        {
          "internalType": "uint256",
          "name": "addedValue",
          "type": "uint256"
        }
      ],
      "name": "increaseAllowance",
      "outputs": [
        {
          "internalType": "bool",
          "name": "",
          "type": "bool"
        }
      ],
      "stateMutability": "nonpayable",
      "type": "function"
    },
    {
      "inputs": [
        {
          "internalType": "address",
          "name": "admin",
          "type": "address"
        }
      ],
      "name": "isAdmin",
      "outputs": [
        {
          "internalType": "bool",
          "name": "",
          "type": "bool"
        }
      ],
      "stateMutability": "view",
      "type": "function"
    },
    {
      "inputs": [],
      "name": "name",
      "outputs": [
        {
          "internalType": "string",
          "name": "",
          "type": "string"
        }
      ],
      "stateMutability": "view",
      "type": "function"
    },
    {
      "inputs": [],
      "name": "owner",
      "outputs": [
        {
          "internalType": "address",
          "name": "",
          "type": "address"
        }
      ],
      "stateMutability": "view",
      "type": "function"
    },
    {
      "inputs": [],
      "name": "renounceOwnership",
      "outputs": [],
      "stateMutability": "nonpayable",
      "type": "function"
    },
    {
      "inputs": [
        {
          "internalType": "address",
          "name": "admin",
          "type": "address"
        }
      ],
      "name": "revokeAdmin",
      "outputs": [],
      "stateMutability": "nonpayable",
      "type": "function"
    },
    {
      "inputs": [
        {
          "internalType": "bytes4",
          "name": "interfaceId",
          "type": "bytes4"
        }
      ],
      "name": "supportsInterface",
      "outputs": [
        {
          "internalType": "bool",
          "name": "",
          "type": "bool"
        }
      ],
      "stateMutability": "view",
      "type": "function"
    },
    {
      "inputs": [],
      "name": "symbol",
      "outputs": [
        {
          "internalType": "string",
          "name": "",
          "type": "string"
        }
      ],
      "stateMutability": "view",
      "type": "function"
    },
    {
      "inputs": [],
      "name": "totalSupply",
      "outputs": [
        {
          "internalType": "uint256",
          "name": "",
          "type": "uint256"
        }
      ],
      "stateMutability": "view",
      "type": "function"
    },
    {
      "inputs": [
        {
          "internalType": "address",
          "name": "recipient",
          "type": "address"
        },
        {
          "internalType": "uint256",
          "name": "amount",
          "type": "uint256"
        }
      ],
      "name": "transfer",
      "outputs": [
        {
          "internalType": "bool",
          "name": "",
          "type": "bool"
        }
      ],
      "stateMutability": "nonpayable",
      "type": "function"
    },
    {
      "inputs": [
        {
          "internalType": "address",
          "name": "sender",
          "type": "address"
        },
        {
          "internalType": "address",
          "name": "recipient",
          "type": "address"
        },
        {
          "internalType": "uint256",
          "name": "amount",
          "type": "uint256"
        }
      ],
      "name": "transferFrom",
      "outputs": [
        {
          "internalType": "bool",
          "name": "",
          "type": "bool"
        }
      ],
      "stateMutability": "nonpayable",
      "type": "function"
    },
    {
      "inputs": [
        {
          "internalType": "address",
          "name": "newOwner",
          "type": "address"
        }
      ],
      "name": "transferOwnership",
      "outputs": [],
      "stateMutability": "nonpayable",
      "type": "function"
    },
    {
      "inputs": [
        {
          "internalType": "address",
          "name": "contractAddress",
          "type": "address"
        },
        {
          "internalType": "uint256",
          "name": "contractVolume",
          "type": "uint256"
        }
      ],
      "name": "registerDrop",
      "outputs": [],
      "stateMutability": "nonpayable",
      "type": "function"
    },
    {
      "inputs": [
        {
          "internalType": "uint256",
          "name": "contractId",
          "type": "uint256"
        },
        {
          "internalType": "address",
          "name": "contractAddress",
          "type": "address"
        },
        {
          "internalType": "uint256",
          "name": "contractVolume",
          "type": "uint256"
        }
      ],
      "name": "editDrop",
      "outputs": [],
      "stateMutability": "nonpayable",
      "type": "function"
    },
    {
      "inputs": [
        {
          "internalType": "address",
          "name": "contractAddress",
          "type": "address"
        }
      ],
      "name": "setLiveContract",
      "outputs": [],
      "stateMutability": "nonpayable",
      "type": "function"
    },
    {
      "inputs": [
        {
          "internalType": "address",
          "name": "contractAddress",
          "type": "address"
        }
      ],
      "name": "getContractId",
      "outputs": [
        {
          "internalType": "uint256",
          "name": "id",
          "type": "uint256"
        }
      ],
      "stateMutability": "view",
      "type": "function"
    },
    {
      "inputs": [
        {
          "internalType": "address",
          "name": "recipient",
          "type": "address"
        },
        {
          "internalType": "uint256",
          "name": "amountOfNFTsMinted",
          "type": "uint256"
        }
      ],
      "name": "mint",
      "outputs": [
        {
          "internalType": "uint256",
          "name": "amountMinted",
          "type": "uint256"
        }
      ],
      "stateMutability": "nonpayable",
      "type": "function"
    },
    {
      "inputs": [
        {
          "internalType": "address[]",
          "name": "recipients",
          "type": "address[]"
        },
        {
          "internalType": "uint256[]",
          "name": "amountOfNFTsMinted",
          "type": "uint256[]"
        }
      ],
      "name": "airdrop",
      "outputs": [],
      "stateMutability": "nonpayable",
      "type": "function"
    },
    {
      "inputs": [
        {
          "internalType": "uint256",
          "name": "amount",
          "type": "uint256"
        }
      ],
      "name": "burn",
      "outputs": [],
      "stateMutability": "nonpayable",
      "type": "function"
    },
    {
      "inputs": [
        {
          "internalType": "address",
          "name": "ShootingStarAddress",
          "type": "address"
        }
      ],
      "name": "setShootingStarAddress",
      "outputs": [],
      "stateMutability": "nonpayable",
      "type": "function"
    },
    {
      "inputs": [
        {
          "internalType": "uint256",
          "name": "shootingStarId",
          "type": "uint256"
        }
      ],
      "name": "activateShootingStar",
      "outputs": [],
      "stateMutability": "nonpayable",
      "type": "function"
    }
  ],
  "bytecode": "0x6080604052611a126008553480156200001757600080fd5b506040518060400160405280600981526020017f426c61636b686f6c6500000000000000000000000000000000000000000000008152506040518060400160405280600281526020017f424800000000000000000000000000000000000000000000000000000000000081525081600390805190602001906200009c92919062000242565b508060049080519060200190620000b592919062000242565b505050620000d8620000cc6200017460201b60201c565b6200017c60201b60201c565b600c60009080600181540180825580915050600190039060005260206000200160009091909190916101000a81548173ffffffffffffffffffffffffffffffffffffffff021916908373ffffffffffffffffffffffffffffffffffffffff160217905550600b60009080600181540180825580915050600190039060005260206000200160009091909190915055600060098190555062000356565b600033905090565b6000600560009054906101000a900473ffffffffffffffffffffffffffffffffffffffff16905081600560006101000a81548173ffffffffffffffffffffffffffffffffffffffff021916908373ffffffffffffffffffffffffffffffffffffffff1602179055508173ffffffffffffffffffffffffffffffffffffffff168173ffffffffffffffffffffffffffffffffffffffff167f8be0079c531659141344cd1fd0a4f28419497f9722a3daafe3b4186f6b6457e060405160405180910390a35050565b828054620002509062000321565b90600052602060002090601f016020900481019282620002745760008555620002c0565b82601f106200028f57805160ff1916838001178555620002c0565b82800160010185558215620002c0579182015b82811115620002bf578251825591602001919060010190620002a2565b5b509050620002cf9190620002d3565b5090565b5b80821115620002ee576000816000905550600101620002d4565b5090565b7f4e487b7100000000000000000000000000000000000000000000000000000000600052602260045260246000fd5b600060028204905060018216806200033a57607f821691505b60208210810362000350576200034f620002f2565b5b50919050565b61405080620003666000396000f3fe608060405234801561001057600080fd5b506004361061021c5760003560e01c8063715018a611610125578063bb57f5cc116100ad578063eb2ec84a1161007c578063eb2ec84a14610679578063edf1ae7314610695578063f2fde38b146106b3578063fc4eb990146106cf578063ffde492d146106eb5761021c565b8063bb57f5cc146105ef578063dcb113061461060d578063dd62ed3e1461062b578063ddc023471461065b5761021c565b80638e0ad9cb116100f45780638e0ad9cb1461053757806395d89b4114610555578063a457c2d714610573578063a9059cbb146105a3578063b41d252d146105d35761021c565b8063715018a6146104c3578063718d694c146104cd57806383e00553146104e95780638da5cb5b146105195761021c565b806331ae450b116101a857806342966c681161017757806342966c681461040f578063466cfb3f1461042b578063672434821461045b5780636d73e6691461047757806370a08231146104935761021c565b806331ae450b14610375578063360df9031461039357806339509351146103af57806340c10f19146103df5761021c565b806318160ddd116101ef57806318160ddd146102bd57806323b872dd146102db57806324d7806c1461030b5780632d3456701461033b578063313ce567146103575761021c565b806301ffc9a71461022157806306fdde0314610251578063095ea7b31461026f5780630d811bf31461029f575b600080fd5b61023b60048036038101906102369190612e10565b61071b565b6040516102489190612e58565b60405180910390f35b610259610795565b6040516102669190612f0c565b60405180910390f35b61028960048036038101906102849190612fc2565b610827565b6040516102969190612e58565b60405180910390f35b6102a7610845565b6040516102b49190613011565b60405180910390f35b6102c561084b565b6040516102d29190613011565b60405180910390f35b6102f560048036038101906102f0919061302c565b610855565b6040516103029190612e58565b60405180910390f35b6103256004803603810190610320919061307f565b61094d565b6040516103329190612e58565b60405180910390f35b6103556004803603810190610350919061307f565b6109a7565b005b61035f610aaf565b60405161036c91906130c8565b60405180910390f35b61037d610ab8565b60405161038a91906131a1565b60405180910390f35b6103ad60048036038101906103a8919061307f565b610b9a565b005b6103c960048036038101906103c49190612fc2565b610c6e565b6040516103d69190612e58565b60405180910390f35b6103f960048036038101906103f49190612fc2565b610d1a565b6040516104069190613011565b60405180910390f35b610429600480360381019061042491906131c3565b610e64565b005b610445600480360381019061044091906131c3565b610e71565b6040516104529190613011565b60405180910390f35b610475600480360381019061047091906132ab565b610e95565b005b610491600480360381019061048c919061307f565b61107d565b005b6104ad60048036038101906104a8919061307f565b611184565b6040516104ba9190613011565b60405180910390f35b6104cb6111cc565b005b6104e760048036038101906104e2919061332c565b611254565b005b61050360048036038101906104fe91906131c3565b611573565b604051610510919061338e565b60405180910390f35b6105216115b2565b60405161052e919061338e565b60405180910390f35b61053f6115dc565b60405161054c919061338e565b60405180910390f35b61055d611602565b60405161056a9190612f0c565b60405180910390f35b61058d60048036038101906105889190612fc2565b611694565b60405161059a9190612e58565b60405180910390f35b6105bd60048036038101906105b89190612fc2565b61177f565b6040516105ca9190612e58565b60405180910390f35b6105ed60048036038101906105e89190612fc2565b61179d565b005b6105f7611926565b604051610604919061338e565b60405180910390f35b61061561194c565b6040516106229190613011565b60405180910390f35b610645600480360381019061064091906133a9565b611952565b6040516106529190613011565b60405180910390f35b6106636119d9565b604051610670919061338e565b60405180910390f35b610693600480360381019061068e91906131c3565b6119ff565b005b61069d611ab4565b6040516106aa9190613011565b60405180910390f35b6106cd60048036038101906106c8919061307f565b611aba565b005b6106e960048036038101906106e4919061307f565b611bb1565b005b6107056004803603810190610700919061307f565b611d07565b6040516107129190613011565b60405180910390f35b60007f553e757e000000000000000000000000000000000000000000000000000000007bffffffffffffffffffffffffffffffffffffffffffffffffffffffff1916827bffffffffffffffffffffffffffffffffffffffffffffffffffffffff1916148061078e575061078d82611d50565b5b9050919050565b6060600380546107a490613418565b80601f01602080910402602001604051908101604052809291908181526020018280546107d090613418565b801561081d5780601f106107f25761010080835404028352916020019161081d565b820191906000526020600020905b81548152906001019060200180831161080057829003601f168201915b5050505050905090565b600061083b610834611dba565b8484611dc2565b6001905092915050565b600a5481565b6000600254905090565b6000610862848484611f8b565b6000600160008673ffffffffffffffffffffffffffffffffffffffff1673ffffffffffffffffffffffffffffffffffffffff16815260200190815260200160002060006108ad611dba565b73ffffffffffffffffffffffffffffffffffffffff1673ffffffffffffffffffffffffffffffffffffffff1681526020019081526020016000205490508281101561092d576040517f08c379a0000000000000000000000000000000000000000000000000000000008152600401610924906134bb565b60405180910390fd5b61094185610939611dba565b858403611dc2565b60019150509392505050565b60008173ffffffffffffffffffffffffffffffffffffffff1661096e6115b2565b73ffffffffffffffffffffffffffffffffffffffff1614806109a0575061099f82600661220a90919063ffffffff16565b5b9050919050565b6109af611dba565b73ffffffffffffffffffffffffffffffffffffffff166109cd6115b2565b73ffffffffffffffffffffffffffffffffffffffff1614610a23576040517f08c379a0000000000000000000000000000000000000000000000000000000008152600401610a1a90613527565b60405180910390fd5b610a3781600661220a90919063ffffffff16565b15610aac573373ffffffffffffffffffffffffffffffffffffffff168173ffffffffffffffffffffffffffffffffffffffff167f7c0c3c84c67c85fcac635147348bfe374c24a1a93d0366d1cfe9d8853cbf89d560405160405180910390a3610aaa81600661223a90919063ffffffff16565b505b50565b60006012905090565b6060610ac4600661226a565b67ffffffffffffffff811115610add57610adc613547565b5b604051908082528060200260200182016040528015610b0b5781602001602082028036833780820191505090505b50905060005b610b1b600661226a565b811015610b9657610b3681600661227f90919063ffffffff16565b828281518110610b4957610b48613576565b5b602002602001019073ffffffffffffffffffffffffffffffffffffffff16908173ffffffffffffffffffffffffffffffffffffffff16815250508080610b8e906135d4565b915050610b11565b5090565b3373ffffffffffffffffffffffffffffffffffffffff16610bb96115b2565b73ffffffffffffffffffffffffffffffffffffffff161480610beb5750610bea33600661220a90919063ffffffff16565b5b610c2a576040517f08c379a0000000000000000000000000000000000000000000000000000000008152600401610c219061368e565b60405180910390fd5b80600f60006101000a81548173ffffffffffffffffffffffffffffffffffffffff021916908373ffffffffffffffffffffffffffffffffffffffff16021790555050565b6000610d10610c7b611dba565b848460016000610c89611dba565b73ffffffffffffffffffffffffffffffffffffffff1673ffffffffffffffffffffffffffffffffffffffff16815260200190815260200160002060008873ffffffffffffffffffffffffffffffffffffffff1673ffffffffffffffffffffffffffffffffffffffff16815260200190815260200160002054610d0b91906136ae565b611dc2565b6001905092915050565b6000600d60009054906101000a900473ffffffffffffffffffffffffffffffffffffffff1673ffffffffffffffffffffffffffffffffffffffff163373ffffffffffffffffffffffffffffffffffffffff1614610dac576040517f08c379a0000000000000000000000000000000000000000000000000000000008152600401610da390613750565b60405180910390fd5b600060106000600d60009054906101000a900473ffffffffffffffffffffffffffffffffffffffff1673ffffffffffffffffffffffffffffffffffffffff1673ffffffffffffffffffffffffffffffffffffffff1681526020019081526020016000205490506000610e3b600b8381548110610e2b57610e2a613576565b5b9060005260206000200154612299565b905060008482610e4b9190613770565b9050610e5786826122c2565b6064935050505092915050565b610e6e3382612421565b50565b600b8181548110610e8157600080fd5b906000526020600020016000915090505481565b3373ffffffffffffffffffffffffffffffffffffffff16610eb46115b2565b73ffffffffffffffffffffffffffffffffffffffff161480610ee65750610ee533600661220a90919063ffffffff16565b5b610f25576040517f08c379a0000000000000000000000000000000000000000000000000000000008152600401610f1c9061368e565b60405180910390fd5b818190508484905014610f6d576040517f08c379a0000000000000000000000000000000000000000000000000000000008152600401610f6490613816565b60405180910390fd5b600060106000600d60009054906101000a900473ffffffffffffffffffffffffffffffffffffffff1673ffffffffffffffffffffffffffffffffffffffff1673ffffffffffffffffffffffffffffffffffffffff1681526020019081526020016000205490506000610ffc600b8381548110610fec57610feb613576565b5b9060005260206000200154612299565b905060005b868690508110156110745761106187878381811061102257611021613576565b5b9050602002016020810190611037919061307f565b86868481811061104a57611049613576565b5b905060200201358461105c9190613770565b6122c2565b808061106c906135d4565b915050611001565b50505050505050565b611085611dba565b73ffffffffffffffffffffffffffffffffffffffff166110a36115b2565b73ffffffffffffffffffffffffffffffffffffffff16146110f9576040517f08c379a00000000000000000000000000000000000000000000000000000000081526004016110f090613527565b60405180910390fd5b61110d81600661220a90919063ffffffff16565b611181573373ffffffffffffffffffffffffffffffffffffffff168173ffffffffffffffffffffffffffffffffffffffff167f7e1a1a08d52e4ba0e21554733d66165fd5151f99460116223d9e3a608eec5cb160405160405180910390a361117f8160066125f790919063ffffffff16565b505b50565b60008060008373ffffffffffffffffffffffffffffffffffffffff1673ffffffffffffffffffffffffffffffffffffffff168152602001908152602001600020549050919050565b6111d4611dba565b73ffffffffffffffffffffffffffffffffffffffff166111f26115b2565b73ffffffffffffffffffffffffffffffffffffffff1614611248576040517f08c379a000000000000000000000000000000000000000000000000000000000815260040161123f90613527565b60405180910390fd5b6112526000612627565b565b3373ffffffffffffffffffffffffffffffffffffffff166112736115b2565b73ffffffffffffffffffffffffffffffffffffffff1614806112a557506112a433600661220a90919063ffffffff16565b5b6112e4576040517f08c379a00000000000000000000000000000000000000000000000000000000081526004016112db9061368e565b60405180910390fd5b60008311611327576040517f08c379a000000000000000000000000000000000000000000000000000000000815260040161131e90613882565b60405180910390fd5b600073ffffffffffffffffffffffffffffffffffffffff16600c848154811061135357611352613576565b5b9060005260206000200160009054906101000a900473ffffffffffffffffffffffffffffffffffffffff1673ffffffffffffffffffffffffffffffffffffffff16036113d4576040517f08c379a00000000000000000000000000000000000000000000000000000000081526004016113cb906138ee565b60405180910390fd5b6000151560116000600c86815481106113f0576113ef613576565b5b9060005260206000200160009054906101000a900473ffffffffffffffffffffffffffffffffffffffff1673ffffffffffffffffffffffffffffffffffffffff1673ffffffffffffffffffffffffffffffffffffffff16815260200190815260200160002060009054906101000a900460ff161515146114a5576040517f08c379a000000000000000000000000000000000000000000000000000000000815260040161149c90613980565b60405180910390fd5b6000600b84815481106114bb576114ba613576565b5b9060005260206000200154905082600c85815481106114dd576114dc613576565b5b9060005260206000200160006101000a81548173ffffffffffffffffffffffffffffffffffffffff021916908373ffffffffffffffffffffffffffffffffffffffff160217905550600b829080600181540180825580915050600190039060005260206000200160009091909190915055818160095461155d91906139a0565b61156791906136ae565b60098190555050505050565b600c818154811061158357600080fd5b906000526020600020016000915054906101000a900473ffffffffffffffffffffffffffffffffffffffff1681565b6000600560009054906101000a900473ffffffffffffffffffffffffffffffffffffffff16905090565b600d60009054906101000a900473ffffffffffffffffffffffffffffffffffffffff1681565b60606004805461161190613418565b80601f016020809104026020016040519081016040528092919081815260200182805461163d90613418565b801561168a5780601f1061165f5761010080835404028352916020019161168a565b820191906000526020600020905b81548152906001019060200180831161166d57829003601f168201915b5050505050905090565b600080600160006116a3611dba565b73ffffffffffffffffffffffffffffffffffffffff1673ffffffffffffffffffffffffffffffffffffffff16815260200190815260200160002060008573ffffffffffffffffffffffffffffffffffffffff1673ffffffffffffffffffffffffffffffffffffffff16815260200190815260200160002054905082811015611760576040517f08c379a000000000000000000000000000000000000000000000000000000000815260040161175790613a46565b60405180910390fd5b61177461176b611dba565b85858403611dc2565b600191505092915050565b600061179361178c611dba565b8484611f8b565b6001905092915050565b3373ffffffffffffffffffffffffffffffffffffffff166117bc6115b2565b73ffffffffffffffffffffffffffffffffffffffff1614806117ee57506117ed33600661220a90919063ffffffff16565b5b61182d576040517f08c379a00000000000000000000000000000000000000000000000000000000081526004016118249061368e565b60405180910390fd5b600c829080600181540180825580915050600190039060005260206000200160009091909190916101000a81548173ffffffffffffffffffffffffffffffffffffffff021916908373ffffffffffffffffffffffffffffffffffffffff160217905550600b8190806001815401808255809150506001900390600052602060002001600090919091909150556001600c805490506118cb91906139a0565b601060008473ffffffffffffffffffffffffffffffffffffffff1673ffffffffffffffffffffffffffffffffffffffff168152602001908152602001600020819055508060095461191c91906136ae565b6009819055505050565b600f60009054906101000a900473ffffffffffffffffffffffffffffffffffffffff1681565b60085481565b6000600160008473ffffffffffffffffffffffffffffffffffffffff1673ffffffffffffffffffffffffffffffffffffffff16815260200190815260200160002060008373ffffffffffffffffffffffffffffffffffffffff1673ffffffffffffffffffffffffffffffffffffffff16815260200190815260200160002054905092915050565b600e60009054906101000a900473ffffffffffffffffffffffffffffffffffffffff1681565b3373ffffffffffffffffffffffffffffffffffffffff16611a1e6115b2565b73ffffffffffffffffffffffffffffffffffffffff161480611a505750611a4f33600661220a90919063ffffffff16565b5b611a8f576040517f08c379a0000000000000000000000000000000000000000000000000000000008152600401611a869061368e565b60405180910390fd5b80600a819055506001600f60146101000a81548160ff02191690831515021790555050565b60095481565b611ac2611dba565b73ffffffffffffffffffffffffffffffffffffffff16611ae06115b2565b73ffffffffffffffffffffffffffffffffffffffff1614611b36576040517f08c379a0000000000000000000000000000000000000000000000000000000008152600401611b2d90613527565b60405180910390fd5b600073ffffffffffffffffffffffffffffffffffffffff168173ffffffffffffffffffffffffffffffffffffffff1603611ba5576040517f08c379a0000000000000000000000000000000000000000000000000000000008152600401611b9c90613ad8565b60405180910390fd5b611bae81612627565b50565b3373ffffffffffffffffffffffffffffffffffffffff16611bd06115b2565b73ffffffffffffffffffffffffffffffffffffffff161480611c025750611c0133600661220a90919063ffffffff16565b5b611c41576040517f08c379a0000000000000000000000000000000000000000000000000000000008152600401611c389061368e565b60405180910390fd5b6000601060008373ffffffffffffffffffffffffffffffffffffffff1673ffffffffffffffffffffffffffffffffffffffff1681526020019081526020016000205411611cc3576040517f08c379a0000000000000000000000000000000000000000000000000000000008152600401611cba90613882565b60405180910390fd5b80600d60006101000a81548173ffffffffffffffffffffffffffffffffffffffff021916908373ffffffffffffffffffffffffffffffffffffffff16021790555050565b6000601060008373ffffffffffffffffffffffffffffffffffffffff1673ffffffffffffffffffffffffffffffffffffffff168152602001908152602001600020549050919050565b60007f01ffc9a7000000000000000000000000000000000000000000000000000000007bffffffffffffffffffffffffffffffffffffffffffffffffffffffff1916827bffffffffffffffffffffffffffffffffffffffffffffffffffffffff1916149050919050565b600033905090565b600073ffffffffffffffffffffffffffffffffffffffff168373ffffffffffffffffffffffffffffffffffffffff1603611e31576040517f08c379a0000000000000000000000000000000000000000000000000000000008152600401611e2890613b6a565b60405180910390fd5b600073ffffffffffffffffffffffffffffffffffffffff168273ffffffffffffffffffffffffffffffffffffffff1603611ea0576040517f08c379a0000000000000000000000000000000000000000000000000000000008152600401611e9790613bfc565b60405180910390fd5b80600160008573ffffffffffffffffffffffffffffffffffffffff1673ffffffffffffffffffffffffffffffffffffffff16815260200190815260200160002060008473ffffffffffffffffffffffffffffffffffffffff1673ffffffffffffffffffffffffffffffffffffffff168152602001908152602001600020819055508173ffffffffffffffffffffffffffffffffffffffff168373ffffffffffffffffffffffffffffffffffffffff167f8c5be1e5ebec7d5bd14f71427d1e84f3dd0314c0f7b2291e5b200ac8c7c3b92583604051611f7e9190613011565b60405180910390a3505050565b600073ffffffffffffffffffffffffffffffffffffffff168373ffffffffffffffffffffffffffffffffffffffff1603611ffa576040517f08c379a0000000000000000000000000000000000000000000000000000000008152600401611ff190613c8e565b60405180910390fd5b600073ffffffffffffffffffffffffffffffffffffffff168273ffffffffffffffffffffffffffffffffffffffff1603612069576040517f08c379a000000000000000000000000000000000000000000000000000000000815260040161206090613d20565b60405180910390fd5b6120748383836126ed565b60008060008573ffffffffffffffffffffffffffffffffffffffff1673ffffffffffffffffffffffffffffffffffffffff168152602001908152602001600020549050818110156120fa576040517f08c379a00000000000000000000000000000000000000000000000000000000081526004016120f190613db2565b60405180910390fd5b8181036000808673ffffffffffffffffffffffffffffffffffffffff1673ffffffffffffffffffffffffffffffffffffffff16815260200190815260200160002081905550816000808573ffffffffffffffffffffffffffffffffffffffff1673ffffffffffffffffffffffffffffffffffffffff168152602001908152602001600020600082825461218d91906136ae565b925050819055508273ffffffffffffffffffffffffffffffffffffffff168473ffffffffffffffffffffffffffffffffffffffff167fddf252ad1be2c89b69c2b068fc378daa952ba7f163c4a11628f55a4df523b3ef846040516121f19190613011565b60405180910390a36122048484846126f2565b50505050565b6000612232836000018373ffffffffffffffffffffffffffffffffffffffff1660001b612bcb565b905092915050565b6000612262836000018373ffffffffffffffffffffffffffffffffffffffff1660001b612bee565b905092915050565b600061227882600001612d02565b9050919050565b600061228e8360000183612d13565b60001c905092915050565b600080600954836008546122ad9190613770565b6122b79190613e01565b905080915050919050565b600073ffffffffffffffffffffffffffffffffffffffff168273ffffffffffffffffffffffffffffffffffffffff1603612331576040517f08c379a000000000000000000000000000000000000000000000000000000000815260040161232890613e7e565b60405180910390fd5b61233d600083836126ed565b806002600082825461234f91906136ae565b92505081905550806000808473ffffffffffffffffffffffffffffffffffffffff1673ffffffffffffffffffffffffffffffffffffffff16815260200190815260200160002060008282546123a491906136ae565b925050819055508173ffffffffffffffffffffffffffffffffffffffff16600073ffffffffffffffffffffffffffffffffffffffff167fddf252ad1be2c89b69c2b068fc378daa952ba7f163c4a11628f55a4df523b3ef836040516124099190613011565b60405180910390a361241d600083836126f2565b5050565b600073ffffffffffffffffffffffffffffffffffffffff168273ffffffffffffffffffffffffffffffffffffffff1603612490576040517f08c379a000000000000000000000000000000000000000000000000000000000815260040161248790613f10565b60405180910390fd5b61249c826000836126ed565b60008060008473ffffffffffffffffffffffffffffffffffffffff1673ffffffffffffffffffffffffffffffffffffffff16815260200190815260200160002054905081811015612522576040517f08c379a000000000000000000000000000000000000000000000000000000000815260040161251990613fa2565b60405180910390fd5b8181036000808573ffffffffffffffffffffffffffffffffffffffff1673ffffffffffffffffffffffffffffffffffffffff16815260200190815260200160002081905550816002600082825461257991906139a0565b92505081905550600073ffffffffffffffffffffffffffffffffffffffff168373ffffffffffffffffffffffffffffffffffffffff167fddf252ad1be2c89b69c2b068fc378daa952ba7f163c4a11628f55a4df523b3ef846040516125de9190613011565b60405180910390a36125f2836000846126f2565b505050565b600061261f836000018373ffffffffffffffffffffffffffffffffffffffff1660001b612d3e565b905092915050565b6000600560009054906101000a900473ffffffffffffffffffffffffffffffffffffffff16905081600560006101000a81548173ffffffffffffffffffffffffffffffffffffffff021916908373ffffffffffffffffffffffffffffffffffffffff1602179055508173ffffffffffffffffffffffffffffffffffffffff168173ffffffffffffffffffffffffffffffffffffffff167f8be0079c531659141344cd1fd0a4f28419497f9722a3daafe3b4186f6b6457e060405160405180910390a35050565b505050565b6000600e60009054906101000a900473ffffffffffffffffffffffffffffffffffffffff169050600073ffffffffffffffffffffffffffffffffffffffff168473ffffffffffffffffffffffffffffffffffffffff161461292c576001601260008673ffffffffffffffffffffffffffffffffffffffff1673ffffffffffffffffffffffffffffffffffffffff168152602001908152602001600020600082825461279d91906136ae565b92505081905550600073ffffffffffffffffffffffffffffffffffffffff16600e60009054906101000a900473ffffffffffffffffffffffffffffffffffffffff1673ffffffffffffffffffffffffffffffffffffffff16036128405783600e60006101000a81548173ffffffffffffffffffffffffffffffffffffffff021916908373ffffffffffffffffffffffffffffffffffffffff16021790555061292b565b60126000600e60009054906101000a900473ffffffffffffffffffffffffffffffffffffffff1673ffffffffffffffffffffffffffffffffffffffff1673ffffffffffffffffffffffffffffffffffffffff16815260200190815260200160002054601260008673ffffffffffffffffffffffffffffffffffffffff1673ffffffffffffffffffffffffffffffffffffffff16815260200190815260200160002054111561292a5783600e60006101000a81548173ffffffffffffffffffffffffffffffffffffffff021916908373ffffffffffffffffffffffffffffffffffffffff1602179055505b5b5b600073ffffffffffffffffffffffffffffffffffffffff168373ffffffffffffffffffffffffffffffffffffffff1614612aa2576001601260008573ffffffffffffffffffffffffffffffffffffffff1673ffffffffffffffffffffffffffffffffffffffff16815260200190815260200160002060008282546129b091906136ae565b9250508190555060126000600e60009054906101000a900473ffffffffffffffffffffffffffffffffffffffff1673ffffffffffffffffffffffffffffffffffffffff1673ffffffffffffffffffffffffffffffffffffffff16815260200190815260200160002054601260008573ffffffffffffffffffffffffffffffffffffffff1673ffffffffffffffffffffffffffffffffffffffff168152602001908152602001600020541115612aa15783600e60006101000a81548173ffffffffffffffffffffffffffffffffffffffff021916908373ffffffffffffffffffffffffffffffffffffffff1602179055505b5b600f60149054906101000a900460ff168015612b0c57508073ffffffffffffffffffffffffffffffffffffffff16600e60009054906101000a900473ffffffffffffffffffffffffffffffffffffffff1673ffffffffffffffffffffffffffffffffffffffff1614155b15612bc557600f60009054906101000a900473ffffffffffffffffffffffffffffffffffffffff1673ffffffffffffffffffffffffffffffffffffffff16639036c050600a54600e60009054906101000a900473ffffffffffffffffffffffffffffffffffffffff166040518363ffffffff1660e01b8152600401612b92929190613fc2565b600060405180830381600087803b158015612bac57600080fd5b505af1158015612bc0573d6000803e3d6000fd5b505050505b50505050565b600080836001016000848152602001908152602001600020541415905092915050565b60008083600101600084815260200190815260200160002054905060008114612cf6576000600182612c2091906139a0565b9050600060018660000180549050612c3891906139a0565b9050818114612ca7576000866000018281548110612c5957612c58613576565b5b9060005260206000200154905080876000018481548110612c7d57612c7c613576565b5b90600052602060002001819055508387600101600083815260200190815260200160002081905550505b85600001805480612cbb57612cba613feb565b5b600190038181906000526020600020016000905590558560010160008681526020019081526020016000206000905560019350505050612cfc565b60009150505b92915050565b600081600001805490509050919050565b6000826000018281548110612d2b57612d2a613576565b5b9060005260206000200154905092915050565b6000612d4a8383612bcb565b612da3578260000182908060018154018082558091505060019003906000526020600020016000909190919091505582600001805490508360010160008481526020019081526020016000208190555060019050612da8565b600090505b92915050565b600080fd5b600080fd5b60007fffffffff0000000000000000000000000000000000000000000000000000000082169050919050565b612ded81612db8565b8114612df857600080fd5b50565b600081359050612e0a81612de4565b92915050565b600060208284031215612e2657612e25612dae565b5b6000612e3484828501612dfb565b91505092915050565b60008115159050919050565b612e5281612e3d565b82525050565b6000602082019050612e6d6000830184612e49565b92915050565b600081519050919050565b600082825260208201905092915050565b60005b83811015612ead578082015181840152602081019050612e92565b83811115612ebc576000848401525b50505050565b6000601f19601f8301169050919050565b6000612ede82612e73565b612ee88185612e7e565b9350612ef8818560208601612e8f565b612f0181612ec2565b840191505092915050565b60006020820190508181036000830152612f268184612ed3565b905092915050565b600073ffffffffffffffffffffffffffffffffffffffff82169050919050565b6000612f5982612f2e565b9050919050565b612f6981612f4e565b8114612f7457600080fd5b50565b600081359050612f8681612f60565b92915050565b6000819050919050565b612f9f81612f8c565b8114612faa57600080fd5b50565b600081359050612fbc81612f96565b92915050565b60008060408385031215612fd957612fd8612dae565b5b6000612fe785828601612f77565b9250506020612ff885828601612fad565b9150509250929050565b61300b81612f8c565b82525050565b60006020820190506130266000830184613002565b92915050565b60008060006060848603121561304557613044612dae565b5b600061305386828701612f77565b935050602061306486828701612f77565b925050604061307586828701612fad565b9150509250925092565b60006020828403121561309557613094612dae565b5b60006130a384828501612f77565b91505092915050565b600060ff82169050919050565b6130c2816130ac565b82525050565b60006020820190506130dd60008301846130b9565b92915050565b600081519050919050565b600082825260208201905092915050565b6000819050602082019050919050565b61311881612f4e565b82525050565b600061312a838361310f565b60208301905092915050565b6000602082019050919050565b600061314e826130e3565b61315881856130ee565b9350613163836130ff565b8060005b8381101561319457815161317b888261311e565b975061318683613136565b925050600181019050613167565b5085935050505092915050565b600060208201905081810360008301526131bb8184613143565b905092915050565b6000602082840312156131d9576131d8612dae565b5b60006131e784828501612fad565b91505092915050565b600080fd5b600080fd5b600080fd5b60008083601f840112613215576132146131f0565b5b8235905067ffffffffffffffff811115613232576132316131f5565b5b60208301915083602082028301111561324e5761324d6131fa565b5b9250929050565b60008083601f84011261326b5761326a6131f0565b5b8235905067ffffffffffffffff811115613288576132876131f5565b5b6020830191508360208202830111156132a4576132a36131fa565b5b9250929050565b600080600080604085870312156132c5576132c4612dae565b5b600085013567ffffffffffffffff8111156132e3576132e2612db3565b5b6132ef878288016131ff565b9450945050602085013567ffffffffffffffff81111561331257613311612db3565b5b61331e87828801613255565b925092505092959194509250565b60008060006060848603121561334557613344612dae565b5b600061335386828701612fad565b935050602061336486828701612f77565b925050604061337586828701612fad565b9150509250925092565b61338881612f4e565b82525050565b60006020820190506133a3600083018461337f565b92915050565b600080604083850312156133c0576133bf612dae565b5b60006133ce85828601612f77565b92505060206133df85828601612f77565b9150509250929050565b7f4e487b7100000000000000000000000000000000000000000000000000000000600052602260045260246000fd5b6000600282049050600182168061343057607f821691505b602082108103613443576134426133e9565b5b50919050565b7f45524332303a207472616e7366657220616d6f756e742065786365656473206160008201527f6c6c6f77616e6365000000000000000000000000000000000000000000000000602082015250565b60006134a5602883612e7e565b91506134b082613449565b604082019050919050565b600060208201905081810360008301526134d481613498565b9050919050565b7f4f776e61626c653a2063616c6c6572206973206e6f7420746865206f776e6572600082015250565b6000613511602083612e7e565b915061351c826134db565b602082019050919050565b6000602082019050818103600083015261354081613504565b9050919050565b7f4e487b7100000000000000000000000000000000000000000000000000000000600052604160045260246000fd5b7f4e487b7100000000000000000000000000000000000000000000000000000000600052603260045260246000fd5b7f4e487b7100000000000000000000000000000000000000000000000000000000600052601160045260246000fd5b60006135df82612f8c565b91507fffffffffffffffffffffffffffffffffffffffffffffffffffffffffffffffff8203613611576136106135a5565b5b600182019050919050565b7f41646d696e436f6e74726f6c3a204d757374206265206f776e6572206f72206160008201527f646d696e00000000000000000000000000000000000000000000000000000000602082015250565b6000613678602483612e7e565b91506136838261361c565b604082019050919050565b600060208201905081810360008301526136a78161366b565b9050919050565b60006136b982612f8c565b91506136c483612f8c565b9250827fffffffffffffffffffffffffffffffffffffffffffffffffffffffffffffffff038211156136f9576136f86135a5565b5b828201905092915050565b7f436f6e7472616374206e6f7420616c6c6f77656420746f206d696e7400000000600082015250565b600061373a601c83612e7e565b915061374582613704565b602082019050919050565b600060208201905081810360008301526137698161372d565b9050919050565b600061377b82612f8c565b915061378683612f8c565b9250817fffffffffffffffffffffffffffffffffffffffffffffffffffffffffffffffff04831182151516156137bf576137be6135a5565b5b828202905092915050565b7f496e76616c696420646174610000000000000000000000000000000000000000600082015250565b6000613800600c83612e7e565b915061380b826137ca565b602082019050919050565b6000602082019050818103600083015261382f816137f3565b9050919050565b7f436f6e7472616374206e6f742072656769737465726564000000000000000000600082015250565b600061386c601783612e7e565b915061387782613836565b602082019050919050565b6000602082019050818103600083015261389b8161385f565b9050919050565b7f436f6e7472616374206e6f742020726567697374657265640000000000000000600082015250565b60006138d8601883612e7e565b91506138e3826138a2565b602082019050919050565b60006020820190508181036000830152613907816138cb565b9050919050565b7f43616e6e6f742065646974206120636f6e74726163742074686174207761732060008201527f616c7265616479206d696e656400000000000000000000000000000000000000602082015250565b600061396a602d83612e7e565b91506139758261390e565b604082019050919050565b600060208201905081810360008301526139998161395d565b9050919050565b60006139ab82612f8c565b91506139b683612f8c565b9250828210156139c9576139c86135a5565b5b828203905092915050565b7f45524332303a2064656372656173656420616c6c6f77616e63652062656c6f7760008201527f207a65726f000000000000000000000000000000000000000000000000000000602082015250565b6000613a30602583612e7e565b9150613a3b826139d4565b604082019050919050565b60006020820190508181036000830152613a5f81613a23565b9050919050565b7f4f776e61626c653a206e6577206f776e657220697320746865207a65726f206160008201527f6464726573730000000000000000000000000000000000000000000000000000602082015250565b6000613ac2602683612e7e565b9150613acd82613a66565b604082019050919050565b60006020820190508181036000830152613af181613ab5565b9050919050565b7f45524332303a20617070726f76652066726f6d20746865207a65726f2061646460008201527f7265737300000000000000000000000000000000000000000000000000000000602082015250565b6000613b54602483612e7e565b9150613b5f82613af8565b604082019050919050565b60006020820190508181036000830152613b8381613b47565b9050919050565b7f45524332303a20617070726f766520746f20746865207a65726f20616464726560008201527f7373000000000000000000000000000000000000000000000000000000000000602082015250565b6000613be6602283612e7e565b9150613bf182613b8a565b604082019050919050565b60006020820190508181036000830152613c1581613bd9565b9050919050565b7f45524332303a207472616e736665722066726f6d20746865207a65726f20616460008201527f6472657373000000000000000000000000000000000000000000000000000000602082015250565b6000613c78602583612e7e565b9150613c8382613c1c565b604082019050919050565b60006020820190508181036000830152613ca781613c6b565b9050919050565b7f45524332303a207472616e7366657220746f20746865207a65726f206164647260008201527f6573730000000000000000000000000000000000000000000000000000000000602082015250565b6000613d0a602383612e7e565b9150613d1582613cae565b604082019050919050565b60006020820190508181036000830152613d3981613cfd565b9050919050565b7f45524332303a207472616e7366657220616d6f756e742065786365656473206260008201527f616c616e63650000000000000000000000000000000000000000000000000000602082015250565b6000613d9c602683612e7e565b9150613da782613d40565b604082019050919050565b60006020820190508181036000830152613dcb81613d8f565b9050919050565b7f4e487b7100000000000000000000000000000000000000000000000000000000600052601260045260246000fd5b6000613e0c82612f8c565b9150613e1783612f8c565b925082613e2757613e26613dd2565b5b828204905092915050565b7f45524332303a206d696e7420746f20746865207a65726f206164647265737300600082015250565b6000613e68601f83612e7e565b9150613e7382613e32565b602082019050919050565b60006020820190508181036000830152613e9781613e5b565b9050919050565b7f45524332303a206275726e2066726f6d20746865207a65726f2061646472657360008201527f7300000000000000000000000000000000000000000000000000000000000000602082015250565b6000613efa602183612e7e565b9150613f0582613e9e565b604082019050919050565b60006020820190508181036000830152613f2981613eed565b9050919050565b7f45524332303a206275726e20616d6f756e7420657863656564732062616c616e60008201527f6365000000000000000000000000000000000000000000000000000000000000602082015250565b6000613f8c602283612e7e565b9150613f9782613f30565b604082019050919050565b60006020820190508181036000830152613fbb81613f7f565b9050919050565b6000604082019050613fd76000830185613002565b613fe4602083018461337f565b9392505050565b7f4e487b7100000000000000000000000000000000000000000000000000000000600052603160045260246000fdfea2646970667358221220ac22474b6bdfc2d951b430fb23f40c8dffcbaa2b7549655d28b8d27dde9f925a64736f6c634300080d0033",
  "immutableReferences": {},
  "source": "// SPDX-License-Identifier: MIT\npragma solidity >= 0.8.13;\n\nimport \"@openzeppelin/contracts/token/ERC20/ERC20.sol\";\nimport \"./ShootingStar.sol\";\nimport \"@manifoldxyz/libraries-solidity/contracts/access/AdminControl.sol\";\n\ncontract BH is ERC20, AdminControl{\n\n  uint256 public _universalGravitationalConstant = 6674;\n  uint256 public _totalNFTSupply;\n  uint256  public _shootingStarId;\n\n  uint256[] public _contractVolumes;\n  address[] public _contractAdresses;\n\n  address public  _liveContract;\n  address public _shootingStar;\n  address public _shootingStarAddress;\n\n  bool _shootingStarActivated;\n\n  mapping(address => uint256) _contractIds;\n  mapping(address => bool) _contractMinted;\n  mapping (address => uint256) _transactionNumber;\n\n  constructor () ERC20(\"Blackhole\", \"BH\"){\n    // Set values in index 0 of the arrays to not have a a contract with id 0\n    // Prevents any issues with default values in _contractIds mapping\n    _contractAdresses.push(address(0));\n    _contractVolumes.push(0);\n    _totalNFTSupply = 0;\n  }\n\n  function getMintQuantity(uint256 dropVolume)internal view returns(uint256 _mintQuantity){\n    uint256 mintQuantity =  _universalGravitationalConstant * dropVolume/(_totalNFTSupply);\n    return mintQuantity;\n  }\n\n  function registerDrop (address contractAddress, uint256 contractVolume) external adminRequired{\n    _contractAdresses.push(contractAddress);\n    _contractVolumes.push(contractVolume);\n    _contractIds[contractAddress] = _contractAdresses.length - 1;\n    _totalNFTSupply = _totalNFTSupply + contractVolume;\n  }\n\n  function editDrop (uint256 contractId, address contractAddress, uint256 contractVolume) external adminRequired{\n    require(contractId > 0, \"Contract not registered\");\n    require(_contractAdresses[contractId]  != address(0),  \"Contract not  registered\");\n    require(_contractMinted[_contractAdresses[contractId]]==false,\"Cannot edit a contract that was already mined\");\n    uint256 oldDropVolume  =  _contractVolumes[contractId];\n    _contractAdresses[contractId] = contractAddress;\n    _contractVolumes.push(contractVolume);\n    _totalNFTSupply = _totalNFTSupply - oldDropVolume + contractVolume;\n  }\n\n  function setLiveContract(address contractAddress) external adminRequired{\n    require(_contractIds[contractAddress]>0,\"Contract not registered\");\n    _liveContract = contractAddress;\n  }\n\n  function  getContractId(address contractAddress)external view returns(uint256 id){\n    return _contractIds[contractAddress]; \n  }\n  \n  function mint(address recipient, uint256 amountOfNFTsMinted) external returns(uint256 amountMinted){\n    require(msg.sender == _liveContract, \"Contract not allowed to mint\");\n    uint256 contractId = _contractIds[_liveContract];\n    uint256 amount =  getMintQuantity(_contractVolumes[contractId]);\n    uint256 quantity =  amount * amountOfNFTsMinted;\n    _mint(recipient, quantity);\n    return 100;\n  }\n\n  function airdrop(address[] calldata recipients, uint256[] calldata amountOfNFTsMinted)external adminRequired{\n    require(recipients.length == amountOfNFTsMinted.length, \"Invalid data\");\n    uint256 contractId = _contractIds[_liveContract];\n    uint256 amount =  getMintQuantity(_contractVolumes[contractId]);\n    for(uint256 i = 0; i < recipients.length; i++){\n      _mint(recipients[i],  amount * amountOfNFTsMinted[i]);\n    }\n  }\n\n  function burn(uint256 amount)external{\n    _burn(msg.sender, amount);\n  }\n\n  function setShootingStarAddress(address ShootingStarAddress) external adminRequired{\n      _shootingStarAddress = ShootingStarAddress;\n  }\n\n  function activateShootingStar(uint256 shootingStarId) external adminRequired{\n      _shootingStarId = shootingStarId;\n      _shootingStarActivated = true;\n  }\n\n  function _afterTokenTransfer(\n    address from,\n    address to,\n    uint256 amount\n  ) internal override {\n    address originalStar = _shootingStar;\n    // Track the number of the transactions\n    // Mints and burn are not transactions\n    if(from != address(0)) { \n      _transactionNumber[from] += 1;\n      if(_shootingStar == address(0)){\n        _shootingStar = from;\n      }else{\n        // With the same number of transactions, the initiator of the transaction will have priority\n        if(_transactionNumber[from] > _transactionNumber[_shootingStar]){\n          _shootingStar = from;\n        }\n      }\n    }\n    if(to != address(0)){\n      _transactionNumber[to] += 1;\n      if(_transactionNumber[to] > _transactionNumber[_shootingStar]){\n        _shootingStar = from;\n      }\n    }\n    if(_shootingStarActivated && _shootingStar != originalStar){\n      ShootingStar(_shootingStarAddress).transferNFT(_shootingStarId, _shootingStar);\n    }\n  }\n  \n}",
  "sourcePath": "/Users/bct/Documents/Dev/NFT_dev/Blackhole/contracts/BH.sol",
  "compiler": {
    "name": "solc",
    "version": "0.8.13+commit.abaa5c0e.Emscripten.clang"
  },
  "schemaVersion": "3.4.4",
  "updatedAt": "2022-06-16T16:08:40.001Z",
  "devdoc": {
    "kind": "dev",
    "methods": {
      "allowance(address,address)": {
        "details": "See {IERC20-allowance}."
      },
      "approve(address,uint256)": {
        "details": "See {IERC20-approve}. Requirements: - `spender` cannot be the zero address."
      },
      "approveAdmin(address)": {
        "details": "See {IAdminControl-approveAdmin}."
      },
      "balanceOf(address)": {
        "details": "See {IERC20-balanceOf}."
      },
      "decimals()": {
        "details": "Returns the number of decimals used to get its user representation. For example, if `decimals` equals `2`, a balance of `505` tokens should be displayed to a user as `5.05` (`505 / 10 ** 2`). Tokens usually opt for a value of 18, imitating the relationship between Ether and Wei. This is the value {ERC20} uses, unless this function is overridden; NOTE: This information is only used for _display_ purposes: it in no way affects any of the arithmetic of the contract, including {IERC20-balanceOf} and {IERC20-transfer}."
      },
      "decreaseAllowance(address,uint256)": {
        "details": "Atomically decreases the allowance granted to `spender` by the caller. This is an alternative to {approve} that can be used as a mitigation for problems described in {IERC20-approve}. Emits an {Approval} event indicating the updated allowance. Requirements: - `spender` cannot be the zero address. - `spender` must have allowance for the caller of at least `subtractedValue`."
      },
      "getAdmins()": {
        "details": "See {IAdminControl-getAdmins}."
      },
      "increaseAllowance(address,uint256)": {
        "details": "Atomically increases the allowance granted to `spender` by the caller. This is an alternative to {approve} that can be used as a mitigation for problems described in {IERC20-approve}. Emits an {Approval} event indicating the updated allowance. Requirements: - `spender` cannot be the zero address."
      },
      "isAdmin(address)": {
        "details": "See {IAdminControl-isAdmin}."
      },
      "name()": {
        "details": "Returns the name of the token."
      },
      "owner()": {
        "details": "Returns the address of the current owner."
      },
      "renounceOwnership()": {
        "details": "Leaves the contract without owner. It will not be possible to call `onlyOwner` functions anymore. Can only be called by the current owner. NOTE: Renouncing ownership will leave the contract without an owner, thereby removing any functionality that is only available to the owner."
      },
      "revokeAdmin(address)": {
        "details": "See {IAdminControl-revokeAdmin}."
      },
      "supportsInterface(bytes4)": {
        "details": "See {IERC165-supportsInterface}."
      },
      "symbol()": {
        "details": "Returns the symbol of the token, usually a shorter version of the name."
      },
      "totalSupply()": {
        "details": "See {IERC20-totalSupply}."
      },
      "transfer(address,uint256)": {
        "details": "See {IERC20-transfer}. Requirements: - `recipient` cannot be the zero address. - the caller must have a balance of at least `amount`."
      },
      "transferFrom(address,address,uint256)": {
        "details": "See {IERC20-transferFrom}. Emits an {Approval} event indicating the updated allowance. This is not required by the EIP. See the note at the beginning of {ERC20}. Requirements: - `sender` and `recipient` cannot be the zero address. - `sender` must have a balance of at least `amount`. - the caller must have allowance for ``sender``'s tokens of at least `amount`."
      },
      "transferOwnership(address)": {
        "details": "Transfers ownership of the contract to a new account (`newOwner`). Can only be called by the current owner."
      }
    },
    "version": 1
  },
  "userdoc": {
    "kind": "user",
    "methods": {},
    "version": 1
  }
}