{
  "contractName": "blackhole",
  "abi": [
    {
      "inputs": [],
      "stateMutability": "nonpayable",
      "type": "constructor"
    },
    {
      "anonymous": false,
      "inputs": [
        {
          "indexed": true,
          "internalType": "address",
          "name": "account",
          "type": "address"
        },
        {
          "indexed": true,
          "internalType": "address",
          "name": "sender",
          "type": "address"
        }
      ],
      "name": "AdminApproved",
      "type": "event"
    },
    {
      "anonymous": false,
      "inputs": [
        {
          "indexed": true,
          "internalType": "address",
          "name": "account",
          "type": "address"
        },
        {
          "indexed": true,
          "internalType": "address",
          "name": "sender",
          "type": "address"
        }
      ],
      "name": "AdminRevoked",
      "type": "event"
    },
    {
      "anonymous": false,
      "inputs": [
        {
          "indexed": true,
          "internalType": "address",
          "name": "owner",
          "type": "address"
        },
        {
          "indexed": true,
          "internalType": "address",
          "name": "approved",
          "type": "address"
        },
        {
          "indexed": true,
          "internalType": "uint256",
          "name": "tokenId",
          "type": "uint256"
        }
      ],
      "name": "Approval",
      "type": "event"
    },
    {
      "anonymous": false,
      "inputs": [
        {
          "indexed": true,
          "internalType": "address",
          "name": "owner",
          "type": "address"
        },
        {
          "indexed": true,
          "internalType": "address",
          "name": "operator",
          "type": "address"
        },
        {
          "indexed": false,
          "internalType": "bool",
          "name": "approved",
          "type": "bool"
        }
      ],
      "name": "ApprovalForAll",
      "type": "event"
    },
    {
      "anonymous": false,
      "inputs": [
        {
          "indexed": true,
          "internalType": "address",
          "name": "previousOwner",
          "type": "address"
        },
        {
          "indexed": true,
          "internalType": "address",
          "name": "newOwner",
          "type": "address"
        }
      ],
      "name": "OwnershipTransferred",
      "type": "event"
    },
    {
      "anonymous": false,
      "inputs": [
        {
          "indexed": false,
          "internalType": "uint256",
          "name": "tokenId",
          "type": "uint256"
        }
      ],
      "name": "Stag3Activated",
      "type": "event"
    },
    {
      "anonymous": false,
      "inputs": [
        {
          "indexed": true,
          "internalType": "address",
          "name": "from",
          "type": "address"
        },
        {
          "indexed": true,
          "internalType": "address",
          "name": "to",
          "type": "address"
        },
        {
          "indexed": true,
          "internalType": "uint256",
          "name": "tokenId",
          "type": "uint256"
        }
      ],
      "name": "Transfer",
      "type": "event"
    },
    {
      "inputs": [],
      "name": "_BHAddress",
      "outputs": [
        {
          "internalType": "address",
          "name": "",
          "type": "address"
        }
      ],
      "stateMutability": "view",
      "type": "function"
    },
    {
      "inputs": [
        {
          "internalType": "uint256",
          "name": "",
          "type": "uint256"
        }
      ],
      "name": "_BHBalances",
      "outputs": [
        {
          "internalType": "uint256",
          "name": "",
          "type": "uint256"
        }
      ],
      "stateMutability": "view",
      "type": "function"
    },
    {
      "inputs": [],
      "name": "_ethPrice",
      "outputs": [
        {
          "internalType": "uint256",
          "name": "",
          "type": "uint256"
        }
      ],
      "stateMutability": "view",
      "type": "function"
    },
    {
      "inputs": [],
      "name": "_mintOpened",
      "outputs": [
        {
          "internalType": "bool",
          "name": "",
          "type": "bool"
        }
      ],
      "stateMutability": "view",
      "type": "function"
    },
    {
      "inputs": [],
      "name": "_shootingStarMinted",
      "outputs": [
        {
          "internalType": "bool",
          "name": "",
          "type": "bool"
        }
      ],
      "stateMutability": "view",
      "type": "function"
    },
    {
      "inputs": [
        {
          "internalType": "uint256",
          "name": "",
          "type": "uint256"
        }
      ],
      "name": "_stage3TokenIds",
      "outputs": [
        {
          "internalType": "uint256",
          "name": "",
          "type": "uint256"
        }
      ],
      "stateMutability": "view",
      "type": "function"
    },
    {
      "inputs": [
        {
          "internalType": "address",
          "name": "to",
          "type": "address"
        },
        {
          "internalType": "uint256",
          "name": "tokenId",
          "type": "uint256"
        }
      ],
      "name": "approve",
      "outputs": [],
      "stateMutability": "nonpayable",
      "type": "function"
    },
    {
      "inputs": [
        {
          "internalType": "address",
          "name": "admin",
          "type": "address"
        }
      ],
      "name": "approveAdmin",
      "outputs": [],
      "stateMutability": "nonpayable",
      "type": "function"
    },
    {
      "inputs": [
        {
          "internalType": "address",
          "name": "owner",
          "type": "address"
        }
      ],
      "name": "balanceOf",
      "outputs": [
        {
          "internalType": "uint256",
          "name": "",
          "type": "uint256"
        }
      ],
      "stateMutability": "view",
      "type": "function"
    },
    {
      "inputs": [],
      "name": "getAdmins",
      "outputs": [
        {
          "internalType": "address[]",
          "name": "admins",
          "type": "address[]"
        }
      ],
      "stateMutability": "view",
      "type": "function"
    },
    {
      "inputs": [
        {
          "internalType": "uint256",
          "name": "tokenId",
          "type": "uint256"
        }
      ],
      "name": "getApproved",
      "outputs": [
        {
          "internalType": "address",
          "name": "",
          "type": "address"
        }
      ],
      "stateMutability": "view",
      "type": "function"
    },
    {
      "inputs": [
        {
          "internalType": "address",
          "name": "admin",
          "type": "address"
        }
      ],
      "name": "isAdmin",
      "outputs": [
        {
          "internalType": "bool",
          "name": "",
          "type": "bool"
        }
      ],
      "stateMutability": "view",
      "type": "function"
    },
    {
      "inputs": [
        {
          "internalType": "address",
          "name": "owner",
          "type": "address"
        },
        {
          "internalType": "address",
          "name": "operator",
          "type": "address"
        }
      ],
      "name": "isApprovedForAll",
      "outputs": [
        {
          "internalType": "bool",
          "name": "",
          "type": "bool"
        }
      ],
      "stateMutability": "view",
      "type": "function"
    },
    {
      "inputs": [],
      "name": "name",
      "outputs": [
        {
          "internalType": "string",
          "name": "",
          "type": "string"
        }
      ],
      "stateMutability": "view",
      "type": "function"
    },
    {
      "inputs": [],
      "name": "owner",
      "outputs": [
        {
          "internalType": "address",
          "name": "",
          "type": "address"
        }
      ],
      "stateMutability": "view",
      "type": "function"
    },
    {
      "inputs": [
        {
          "internalType": "uint256",
          "name": "tokenId",
          "type": "uint256"
        }
      ],
      "name": "ownerOf",
      "outputs": [
        {
          "internalType": "address",
          "name": "",
          "type": "address"
        }
      ],
      "stateMutability": "view",
      "type": "function"
    },
    {
      "inputs": [],
      "name": "renounceOwnership",
      "outputs": [],
      "stateMutability": "nonpayable",
      "type": "function"
    },
    {
      "inputs": [
        {
          "internalType": "address",
          "name": "admin",
          "type": "address"
        }
      ],
      "name": "revokeAdmin",
      "outputs": [],
      "stateMutability": "nonpayable",
      "type": "function"
    },
    {
      "inputs": [
        {
          "internalType": "address",
          "name": "from",
          "type": "address"
        },
        {
          "internalType": "address",
          "name": "to",
          "type": "address"
        },
        {
          "internalType": "uint256",
          "name": "tokenId",
          "type": "uint256"
        }
      ],
      "name": "safeTransferFrom",
      "outputs": [],
      "stateMutability": "nonpayable",
      "type": "function"
    },
    {
      "inputs": [
        {
          "internalType": "address",
          "name": "from",
          "type": "address"
        },
        {
          "internalType": "address",
          "name": "to",
          "type": "address"
        },
        {
          "internalType": "uint256",
          "name": "tokenId",
          "type": "uint256"
        },
        {
          "internalType": "bytes",
          "name": "_data",
          "type": "bytes"
        }
      ],
      "name": "safeTransferFrom",
      "outputs": [],
      "stateMutability": "nonpayable",
      "type": "function"
    },
    {
      "inputs": [
        {
          "internalType": "address",
          "name": "operator",
          "type": "address"
        },
        {
          "internalType": "bool",
          "name": "approved",
          "type": "bool"
        }
      ],
      "name": "setApprovalForAll",
      "outputs": [],
      "stateMutability": "nonpayable",
      "type": "function"
    },
    {
      "inputs": [],
      "name": "symbol",
      "outputs": [
        {
          "internalType": "string",
          "name": "",
          "type": "string"
        }
      ],
      "stateMutability": "view",
      "type": "function"
    },
    {
      "inputs": [
        {
          "internalType": "address",
          "name": "from",
          "type": "address"
        },
        {
          "internalType": "address",
          "name": "to",
          "type": "address"
        },
        {
          "internalType": "uint256",
          "name": "tokenId",
          "type": "uint256"
        }
      ],
      "name": "transferFrom",
      "outputs": [],
      "stateMutability": "nonpayable",
      "type": "function"
    },
    {
      "inputs": [
        {
          "internalType": "address",
          "name": "newOwner",
          "type": "address"
        }
      ],
      "name": "transferOwnership",
      "outputs": [],
      "stateMutability": "nonpayable",
      "type": "function"
    },
    {
      "inputs": [
        {
          "internalType": "bytes4",
          "name": "interfaceId",
          "type": "bytes4"
        }
      ],
      "name": "supportsInterface",
      "outputs": [
        {
          "internalType": "bool",
          "name": "",
          "type": "bool"
        }
      ],
      "stateMutability": "view",
      "type": "function"
    },
    {
      "inputs": [
        {
          "internalType": "address",
          "name": "BHAddress",
          "type": "address"
        }
      ],
      "name": "setBHAddress",
      "outputs": [],
      "stateMutability": "nonpayable",
      "type": "function"
    },
    {
      "inputs": [
        {
          "internalType": "address",
          "name": "signer",
          "type": "address"
        }
      ],
      "name": "setSigner",
      "outputs": [],
      "stateMutability": "nonpayable",
      "type": "function"
    },
    {
      "inputs": [
        {
          "internalType": "uint256",
          "name": "tokenForm",
          "type": "uint256"
        },
        {
          "internalType": "uint8",
          "name": "v",
          "type": "uint8"
        },
        {
          "internalType": "bytes32",
          "name": "r",
          "type": "bytes32"
        },
        {
          "internalType": "bytes32",
          "name": "s",
          "type": "bytes32"
        }
      ],
      "name": "publicMint",
      "outputs": [],
      "stateMutability": "payable",
      "type": "function"
    },
    {
      "inputs": [
        {
          "internalType": "uint256",
          "name": "tokenForm",
          "type": "uint256"
        },
        {
          "internalType": "address",
          "name": "account",
          "type": "address"
        }
      ],
      "name": "adminMint",
      "outputs": [],
      "stateMutability": "nonpayable",
      "type": "function"
    },
    {
      "inputs": [
        {
          "internalType": "uint256",
          "name": "tokenId",
          "type": "uint256"
        }
      ],
      "name": "getBHBalance",
      "outputs": [
        {
          "internalType": "uint256",
          "name": "blalance",
          "type": "uint256"
        }
      ],
      "stateMutability": "view",
      "type": "function"
    },
    {
      "inputs": [],
      "name": "toggleMintState",
      "outputs": [],
      "stateMutability": "nonpayable",
      "type": "function"
    },
    {
      "inputs": [
        {
          "internalType": "string[]",
          "name": "uris",
          "type": "string[]"
        }
      ],
      "name": "updateURIs",
      "outputs": [],
      "stateMutability": "nonpayable",
      "type": "function"
    },
    {
      "inputs": [
        {
          "internalType": "uint256",
          "name": "tokenId",
          "type": "uint256"
        }
      ],
      "name": "tokenURI",
      "outputs": [
        {
          "internalType": "string",
          "name": "",
          "type": "string"
        }
      ],
      "stateMutability": "view",
      "type": "function"
    },
    {
      "inputs": [
        {
          "internalType": "uint256",
          "name": "tokenId",
          "type": "uint256"
        }
      ],
      "name": "burn",
      "outputs": [],
      "stateMutability": "nonpayable",
      "type": "function"
    },
    {
      "inputs": [
        {
          "internalType": "address payable",
          "name": "_recipient",
          "type": "address"
        },
        {
          "internalType": "uint256",
          "name": "_royaltyPerCent",
          "type": "uint256"
        }
      ],
      "name": "setRoyalties",
      "outputs": [],
      "stateMutability": "nonpayable",
      "type": "function"
    },
    {
      "inputs": [
        {
          "internalType": "uint256",
          "name": "salePrice",
          "type": "uint256"
        }
      ],
      "name": "royaltyInfo",
      "outputs": [
        {
          "internalType": "address",
          "name": "",
          "type": "address"
        },
        {
          "internalType": "uint256",
          "name": "",
          "type": "uint256"
        }
      ],
      "stateMutability": "view",
      "type": "function"
    },
    {
      "inputs": [
        {
          "internalType": "uint256",
          "name": "tokenId",
          "type": "uint256"
        },
        {
          "internalType": "uint256",
          "name": "quantity",
          "type": "uint256"
        }
      ],
      "name": "depositBH",
      "outputs": [],
      "stateMutability": "nonpayable",
      "type": "function"
    },
    {
      "inputs": [
        {
          "internalType": "uint256",
          "name": "tokenId",
          "type": "uint256"
        },
        {
          "internalType": "uint256",
          "name": "quantity",
          "type": "uint256"
        }
      ],
      "name": "withdrawBH",
      "outputs": [],
      "stateMutability": "nonpayable",
      "type": "function"
    },
    {
      "inputs": [
        {
          "internalType": "address",
          "name": "recipient",
          "type": "address"
        }
      ],
      "name": "withdraw",
      "outputs": [],
      "stateMutability": "nonpayable",
      "type": "function"
    }
  ],
  "bytecode": "0x608060405267016345785d8a00006009556001600b55612710600c55614e20600d556001600e553480156200003357600080fd5b506040518060400160405280600981526020017f626c61636b686f6c6500000000000000000000000000000000000000000000008152506040518060400160405280600281526020017f6268000000000000000000000000000000000000000000000000000000000000815250620000c0620000b46200014260201b60201c565b6200014a60201b60201c565b8160019080519060200190620000d89291906200020e565b508060029080519060200190620000f19291906200020e565b50505033601460006101000a81548173ffffffffffffffffffffffffffffffffffffffff021916908373ffffffffffffffffffffffffffffffffffffffff160217905550600a808190555062000322565b600033905090565b60008060009054906101000a900473ffffffffffffffffffffffffffffffffffffffff169050816000806101000a81548173ffffffffffffffffffffffffffffffffffffffff021916908373ffffffffffffffffffffffffffffffffffffffff1602179055508173ffffffffffffffffffffffffffffffffffffffff168173ffffffffffffffffffffffffffffffffffffffff167f8be0079c531659141344cd1fd0a4f28419497f9722a3daafe3b4186f6b6457e060405160405180910390a35050565b8280546200021c90620002ed565b90600052602060002090601f0160209004810192826200024057600085556200028c565b82601f106200025b57805160ff19168380011785556200028c565b828001600101855582156200028c579182015b828111156200028b5782518255916020019190600101906200026e565b5b5090506200029b91906200029f565b5090565b5b80821115620002ba576000816000905550600101620002a0565b5090565b7f4e487b7100000000000000000000000000000000000000000000000000000000600052602260045260246000fd5b600060028204905060018216806200030657607f821691505b6020821081036200031c576200031b620002be565b5b50919050565b61564b80620003326000396000f3fe6080604052600436106102305760003560e01c80636d73e6691161012e578063b1b185e6116100ab578063c87b56dd1161006f578063c87b56dd14610826578063cef6d36814610863578063ddea35fd146108a1578063e985e9c5146108ca578063f2fde38b1461090757610230565b8063b1b185e614610755578063b3df48e81461077e578063b7951cf7146107a9578063b88d4fde146107d2578063b9732086146107fb57610230565b80638c7ea24b116100f25780638c7ea24b146106705780638da5cb5b1461069957806395d89b41146106c4578063a22cb465146106ef578063a924e1601461071857610230565b80636d73e6691461057957806370a08231146105a2578063715018a6146105df57806378587cd5146105f65780638317be441461063357610230565b80632d345670116101bc57806351cff8d91161018057806351cff8d9146104a55780635b4ddc28146104ce5780635c89d350146104ea5780636352211e146105135780636c19e7831461055057610230565b80632d345670146103e857806331ae450b1461041157806342842e0e1461043c57806342966c6814610465578063510db75a1461048e57610230565b8063095ea7b311610203578063095ea7b3146103055780630dc28efe1461032e57806319981dd11461035757806323b872dd1461038257806324d7806c146103ab57610230565b806301ffc9a71461023557806306fdde031461027257806307eac2421461029d578063081812fc146102c8575b600080fd5b34801561024157600080fd5b5061025c60048036038101906102579190613839565b610930565b6040516102699190613881565b60405180910390f35b34801561027e57600080fd5b506102876109ca565b6040516102949190613935565b60405180910390f35b3480156102a957600080fd5b506102b2610a5c565b6040516102bf9190613970565b60405180910390f35b3480156102d457600080fd5b506102ef60048036038101906102ea91906139b7565b610a62565b6040516102fc9190613a25565b60405180910390f35b34801561031157600080fd5b5061032c60048036038101906103279190613a6c565b610ae7565b005b34801561033a57600080fd5b5061035560048036038101906103509190613aac565b610bfe565b005b34801561036357600080fd5b5061036c610d8c565b6040516103799190613881565b60405180910390f35b34801561038e57600080fd5b506103a960048036038101906103a49190613aec565b610d9f565b005b3480156103b757600080fd5b506103d260048036038101906103cd9190613b3f565b610dff565b6040516103df9190613881565b60405180910390f35b3480156103f457600080fd5b5061040f600480360381019061040a9190613b3f565b610e59565b005b34801561041d57600080fd5b50610426610f61565b6040516104339190613c2a565b60405180910390f35b34801561044857600080fd5b50610463600480360381019061045e9190613aec565b611043565b005b34801561047157600080fd5b5061048c600480360381019061048791906139b7565b611063565b005b34801561049a57600080fd5b506104a36110e5565b005b3480156104b157600080fd5b506104cc60048036038101906104c79190613b3f565b6111a1565b005b6104e860048036038101906104e39190613cbb565b61127b565b005b3480156104f657600080fd5b50610511600480360381019061050c9190613d22565b6114c6565b005b34801561051f57600080fd5b5061053a600480360381019061053591906139b7565b61173e565b6040516105479190613a25565b60405180910390f35b34801561055c57600080fd5b5061057760048036038101906105729190613b3f565b6117ef565b005b34801561058557600080fd5b506105a0600480360381019061059b9190613b3f565b6118c3565b005b3480156105ae57600080fd5b506105c960048036038101906105c49190613b3f565b6119ca565b6040516105d69190613970565b60405180910390f35b3480156105eb57600080fd5b506105f4611a81565b005b34801561060257600080fd5b5061061d600480360381019061061891906139b7565b611b09565b60405161062a9190613970565b60405180910390f35b34801561063f57600080fd5b5061065a600480360381019061065591906139b7565b611b21565b6040516106679190613970565b60405180910390f35b34801561067c57600080fd5b5061069760048036038101906106929190613da0565b611b39565b005b3480156106a557600080fd5b506106ae611c15565b6040516106bb9190613a25565b60405180910390f35b3480156106d057600080fd5b506106d9611c3e565b6040516106e69190613935565b60405180910390f35b3480156106fb57600080fd5b5061071660048036038101906107119190613e0c565b611cd0565b005b34801561072457600080fd5b5061073f600480360381019061073a91906139b7565b611ce6565b60405161074c9190613970565b60405180910390f35b34801561076157600080fd5b5061077c60048036038101906107779190613d22565b611d03565b005b34801561078a57600080fd5b50610793611f62565b6040516107a09190613881565b60405180910390f35b3480156107b557600080fd5b506107d060048036038101906107cb9190613eb1565b611f75565b005b3480156107de57600080fd5b506107f960048036038101906107f4919061402e565b61209a565b005b34801561080757600080fd5b506108106120fc565b60405161081d9190613a25565b60405180910390f35b34801561083257600080fd5b5061084d600480360381019061084891906139b7565b612122565b60405161085a9190613935565b60405180910390f35b34801561086f57600080fd5b5061088a600480360381019061088591906139b7565b6122ba565b6040516108989291906140b1565b60405180910390f35b3480156108ad57600080fd5b506108c860048036038101906108c39190613b3f565b612366565b005b3480156108d657600080fd5b506108f160048036038101906108ec91906140da565b61243a565b6040516108fe9190613881565b60405180910390f35b34801561091357600080fd5b5061092e60048036038101906109299190613b3f565b6124ce565b005b600061093b826125c5565b8061094b575061094a8261263f565b5b806109b357507f2a55205a000000000000000000000000000000000000000000000000000000007bffffffffffffffffffffffffffffffffffffffffffffffffffffffff1916827bffffffffffffffffffffffffffffffffffffffffffffffffffffffff1916145b806109c357506109c2826125c5565b5b9050919050565b6060600180546109d990614149565b80601f0160208091040260200160405190810160405280929190818152602001828054610a0590614149565b8015610a525780601f10610a2757610100808354040283529160200191610a52565b820191906000526020600020905b815481529060010190602001808311610a3557829003601f168201915b5050505050905090565b60095481565b6000610a6d82612721565b610aac576040517f08c379a0000000000000000000000000000000000000000000000000000000008152600401610aa3906141ec565b60405180910390fd5b6005600083815260200190815260200160002060009054906101000a900473ffffffffffffffffffffffffffffffffffffffff169050919050565b6000610af28261173e565b90508073ffffffffffffffffffffffffffffffffffffffff168373ffffffffffffffffffffffffffffffffffffffff1603610b62576040517f08c379a0000000000000000000000000000000000000000000000000000000008152600401610b599061427e565b60405180910390fd5b8073ffffffffffffffffffffffffffffffffffffffff16610b8161278d565b73ffffffffffffffffffffffffffffffffffffffff161480610bb05750610baf81610baa61278d565b61243a565b5b610bef576040517f08c379a0000000000000000000000000000000000000000000000000000000008152600401610be690614310565b60405180910390fd5b610bf98383612795565b505050565b3373ffffffffffffffffffffffffffffffffffffffff16610c1d611c15565b73ffffffffffffffffffffffffffffffffffffffff161480610c4f5750610c4e33600761284e90919063ffffffff16565b5b610c8e576040517f08c379a0000000000000000000000000000000000000000000000000000000008152600401610c85906143a2565b60405180910390fd5b610c9a81600e5461287e565b81600f6000600e54815260200190815260200160002081905550601360029054906101000a900473ffffffffffffffffffffffffffffffffffffffff1673ffffffffffffffffffffffffffffffffffffffff166340c10f198260016040518363ffffffff1660e01b8152600401610d12929190614407565b6020604051808303816000875af1158015610d31573d6000803e3d6000fd5b505050506040513d601f19601f82011682018060405250810190610d559190614445565b60116000600e548152602001908152602001600020819055506001600e6000828254610d8191906144a1565b925050819055505050565b601360009054906101000a900460ff1681565b610db0610daa61278d565b82612a4b565b610def576040517f08c379a0000000000000000000000000000000000000000000000000000000008152600401610de690614569565b60405180910390fd5b610dfa838383612b29565b505050565b60008173ffffffffffffffffffffffffffffffffffffffff16610e20611c15565b73ffffffffffffffffffffffffffffffffffffffff161480610e525750610e5182600761284e90919063ffffffff16565b5b9050919050565b610e6161278d565b73ffffffffffffffffffffffffffffffffffffffff16610e7f611c15565b73ffffffffffffffffffffffffffffffffffffffff1614610ed5576040517f08c379a0000000000000000000000000000000000000000000000000000000008152600401610ecc906145d5565b60405180910390fd5b610ee981600761284e90919063ffffffff16565b15610f5e573373ffffffffffffffffffffffffffffffffffffffff168173ffffffffffffffffffffffffffffffffffffffff167f7c0c3c84c67c85fcac635147348bfe374c24a1a93d0366d1cfe9d8853cbf89d560405160405180910390a3610f5c816007612d8490919063ffffffff16565b505b50565b6060610f6d6007612db4565b67ffffffffffffffff811115610f8657610f85613f03565b5b604051908082528060200260200182016040528015610fb45781602001602082028036833780820191505090505b50905060005b610fc46007612db4565b81101561103f57610fdf816007612dc990919063ffffffff16565b828281518110610ff257610ff16145f5565b5b602002602001019073ffffffffffffffffffffffffffffffffffffffff16908173ffffffffffffffffffffffffffffffffffffffff1681525050808061103790614624565b915050610fba565b5090565b61105e8383836040518060200160405280600081525061209a565b505050565b3373ffffffffffffffffffffffffffffffffffffffff166110838261173e565b73ffffffffffffffffffffffffffffffffffffffff16146110d9576040517f08c379a00000000000000000000000000000000000000000000000000000000081526004016110d0906146de565b60405180910390fd5b6110e281612de3565b50565b3373ffffffffffffffffffffffffffffffffffffffff16611104611c15565b73ffffffffffffffffffffffffffffffffffffffff161480611136575061113533600761284e90919063ffffffff16565b5b611175576040517f08c379a000000000000000000000000000000000000000000000000000000000815260040161116c906143a2565b60405180910390fd5b601360009054906101000a900460ff1615601360006101000a81548160ff021916908315150217905550565b3373ffffffffffffffffffffffffffffffffffffffff166111c0611c15565b73ffffffffffffffffffffffffffffffffffffffff1614806111f257506111f133600761284e90919063ffffffff16565b5b611231576040517f08c379a0000000000000000000000000000000000000000000000000000000008152600401611228906143a2565b60405180910390fd5b8073ffffffffffffffffffffffffffffffffffffffff166108fc479081150290604051600060405180830381858888f19350505050158015611277573d6000803e3d6000fd5b5050565b611286838383612ef4565b6112c5576040517f08c379a00000000000000000000000000000000000000000000000000000000081526004016112bc9061474a565b60405180910390fd5b60095434101561130a576040517f08c379a0000000000000000000000000000000000000000000000000000000008152600401611301906147b6565b60405180910390fd5b6001841015801561131c575060038411155b61135b576040517f08c379a000000000000000000000000000000000000000000000000000000000815260040161135290614822565b60405180910390fd5b601460009054906101000a900473ffffffffffffffffffffffffffffffffffffffff1673ffffffffffffffffffffffffffffffffffffffff166108fc6009549081150290604051600060405180830381858888f193505050501580156113c5573d6000803e3d6000fd5b506113d233600e5461287e565b83600f6000600e54815260200190815260200160002081905550601360029054906101000a900473ffffffffffffffffffffffffffffffffffffffff1673ffffffffffffffffffffffffffffffffffffffff166340c10f193060016040518363ffffffff1660e01b815260040161144a929190614407565b6020604051808303816000875af1158015611469573d6000803e3d6000fd5b505050506040513d601f19601f8201168201806040525081019061148d9190614445565b60116000600e548152602001908152602001600020819055506001600e60008282546114b991906144a1565b9250508190555050505050565b60008111611509576040517f08c379a0000000000000000000000000000000000000000000000000000000008152600401611500906148b4565b60405180910390fd5b3373ffffffffffffffffffffffffffffffffffffffff166115298361173e565b73ffffffffffffffffffffffffffffffffffffffff161461157f576040517f08c379a000000000000000000000000000000000000000000000000000000000815260040161157690614946565b60405180910390fd5b600061158a83611ce6565b9050600d54828261159b91906144a1565b1061166c57600060126000600f60008781526020019081526020016000205481526020019081526020016000205414611609576040517f08c379a0000000000000000000000000000000000000000000000000000000008152600401611600906149d8565b60405180910390fd5b8260126000600f6000878152602001908152602001600020548152602001908152602001600020819055507f84f7c3f65050b36c770a9eeb539e682781773c052451ef5ae934ae74834482bb836040516116639190613970565b60405180910390a15b601360029054906101000a900473ffffffffffffffffffffffffffffffffffffffff1673ffffffffffffffffffffffffffffffffffffffff166323b872dd3330856040518463ffffffff1660e01b81526004016116cb939291906149f8565b6020604051808303816000875af11580156116ea573d6000803e3d6000fd5b505050506040513d601f19601f8201168201806040525081019061170e9190614a44565b508160116000858152602001908152602001600020600082825461173291906144a1565b92505081905550505050565b6000806003600084815260200190815260200160002060009054906101000a900473ffffffffffffffffffffffffffffffffffffffff169050600073ffffffffffffffffffffffffffffffffffffffff168173ffffffffffffffffffffffffffffffffffffffff16036117e6576040517f08c379a00000000000000000000000000000000000000000000000000000000081526004016117dd90614ae3565b60405180910390fd5b80915050919050565b3373ffffffffffffffffffffffffffffffffffffffff1661180e611c15565b73ffffffffffffffffffffffffffffffffffffffff161480611840575061183f33600761284e90919063ffffffff16565b5b61187f576040517f08c379a0000000000000000000000000000000000000000000000000000000008152600401611876906143a2565b60405180910390fd5b80601560006101000a81548173ffffffffffffffffffffffffffffffffffffffff021916908373ffffffffffffffffffffffffffffffffffffffff16021790555050565b6118cb61278d565b73ffffffffffffffffffffffffffffffffffffffff166118e9611c15565b73ffffffffffffffffffffffffffffffffffffffff161461193f576040517f08c379a0000000000000000000000000000000000000000000000000000000008152600401611936906145d5565b60405180910390fd5b61195381600761284e90919063ffffffff16565b6119c7573373ffffffffffffffffffffffffffffffffffffffff168173ffffffffffffffffffffffffffffffffffffffff167f7e1a1a08d52e4ba0e21554733d66165fd5151f99460116223d9e3a608eec5cb160405160405180910390a36119c5816007612ffd90919063ffffffff16565b505b50565b60008073ffffffffffffffffffffffffffffffffffffffff168273ffffffffffffffffffffffffffffffffffffffff1603611a3a576040517f08c379a0000000000000000000000000000000000000000000000000000000008152600401611a3190614b75565b60405180910390fd5b600460008373ffffffffffffffffffffffffffffffffffffffff1673ffffffffffffffffffffffffffffffffffffffff168152602001908152602001600020549050919050565b611a8961278d565b73ffffffffffffffffffffffffffffffffffffffff16611aa7611c15565b73ffffffffffffffffffffffffffffffffffffffff1614611afd576040517f08c379a0000000000000000000000000000000000000000000000000000000008152600401611af4906145d5565b60405180910390fd5b611b07600061302d565b565b60116020528060005260406000206000915090505481565b60126020528060005260406000206000915090505481565b3373ffffffffffffffffffffffffffffffffffffffff16611b58611c15565b73ffffffffffffffffffffffffffffffffffffffff161480611b8a5750611b8933600761284e90919063ffffffff16565b5b611bc9576040517f08c379a0000000000000000000000000000000000000000000000000000000008152600401611bc0906143a2565b60405180910390fd5b81601460006101000a81548173ffffffffffffffffffffffffffffffffffffffff021916908373ffffffffffffffffffffffffffffffffffffffff16021790555080600a819055505050565b60008060009054906101000a900473ffffffffffffffffffffffffffffffffffffffff16905090565b606060028054611c4d90614149565b80601f0160208091040260200160405190810160405280929190818152602001828054611c7990614149565b8015611cc65780601f10611c9b57610100808354040283529160200191611cc6565b820191906000526020600020905b815481529060010190602001808311611ca957829003601f168201915b5050505050905090565b611ce2611cdb61278d565b83836130f1565b5050565b600060116000838152602001908152602001600020549050919050565b60008111611d46576040517f08c379a0000000000000000000000000000000000000000000000000000000008152600401611d3d90614c07565b60405180910390fd5b3373ffffffffffffffffffffffffffffffffffffffff16611d668361173e565b73ffffffffffffffffffffffffffffffffffffffff1614611dbc576040517f08c379a0000000000000000000000000000000000000000000000000000000008152600401611db390614c99565b60405180910390fd5b8060116000848152602001908152602001600020541015611e12576040517f08c379a0000000000000000000000000000000000000000000000000000000008152600401611e0990614d05565b60405180910390fd5b6000611e1d83611ce6565b90508260126000600f600087815260200190815260200160002054815260200190815260200160002054148015611e605750600d548282611e5e9190614d25565b105b15611e9257600060126000600f6000878152602001908152602001600020548152602001908152602001600020819055505b601360029054906101000a900473ffffffffffffffffffffffffffffffffffffffff1673ffffffffffffffffffffffffffffffffffffffff1663a9059cbb33846040518363ffffffff1660e01b8152600401611eef9291906140b1565b6020604051808303816000875af1158015611f0e573d6000803e3d6000fd5b505050506040513d601f19601f82011682018060405250810190611f329190614a44565b5081601160008581526020019081526020016000206000828254611f569190614d25565b92505081905550505050565b601360019054906101000a900460ff1681565b3373ffffffffffffffffffffffffffffffffffffffff16611f94611c15565b73ffffffffffffffffffffffffffffffffffffffff161480611fc65750611fc533600761284e90919063ffffffff16565b5b612005576040517f08c379a0000000000000000000000000000000000000000000000000000000008152600401611ffc906143a2565b60405180910390fd5b6010600061201391906136a5565b60005b82829050811015612095576010838383818110612036576120356145f5565b5b90506020028101906120489190614d68565b909180600181540180825580915050600190039060005260206000200160009091929091929091929091925091906120819291906136c6565b50808061208d90614624565b915050612016565b505050565b6120ab6120a561278d565b83612a4b565b6120ea576040517f08c379a00000000000000000000000000000000000000000000000000000000081526004016120e190614569565b60405180910390fd5b6120f68484848461325d565b50505050565b601360029054906101000a900473ffffffffffffffffffffffffffffffffffffffff1681565b606061212d82612721565b61216c576040517f08c379a000000000000000000000000000000000000000000000000000000000815260040161216390614e3d565b60405180910390fd5b6000600b546011600085815260200190815260200160002054106121d957600c546011600085815260200190815260200160002054106121d157600d546011600085815260200190815260200160002054106121c95760096121cc565b60065b6121d4565b60035b6121dc565b60005b60ff1690506010600182600f60008781526020019081526020016000205461220491906144a1565b61220e9190614d25565b8154811061221f5761221e6145f5565b5b90600052602060002001805461223490614149565b80601f016020809104026020016040519081016040528092919081815260200182805461226090614149565b80156122ad5780601f10612282576101008083540402835291602001916122ad565b820191906000526020600020905b81548152906001019060200180831161229057829003601f168201915b5050505050915050919050565b600080600073ffffffffffffffffffffffffffffffffffffffff16601460009054906101000a900473ffffffffffffffffffffffffffffffffffffffff1673ffffffffffffffffffffffffffffffffffffffff161461235957601460009054906101000a900473ffffffffffffffffffffffffffffffffffffffff166064600a54856123469190614e5d565b6123509190614ee6565b91509150612361565b600080915091505b915091565b3373ffffffffffffffffffffffffffffffffffffffff16612385611c15565b73ffffffffffffffffffffffffffffffffffffffff1614806123b757506123b633600761284e90919063ffffffff16565b5b6123f6576040517f08c379a00000000000000000000000000000000000000000000000000000000081526004016123ed906143a2565b60405180910390fd5b80601360026101000a81548173ffffffffffffffffffffffffffffffffffffffff021916908373ffffffffffffffffffffffffffffffffffffffff16021790555050565b6000600660008473ffffffffffffffffffffffffffffffffffffffff1673ffffffffffffffffffffffffffffffffffffffff16815260200190815260200160002060008373ffffffffffffffffffffffffffffffffffffffff1673ffffffffffffffffffffffffffffffffffffffff16815260200190815260200160002060009054906101000a900460ff16905092915050565b6124d661278d565b73ffffffffffffffffffffffffffffffffffffffff166124f4611c15565b73ffffffffffffffffffffffffffffffffffffffff161461254a576040517f08c379a0000000000000000000000000000000000000000000000000000000008152600401612541906145d5565b60405180910390fd5b600073ffffffffffffffffffffffffffffffffffffffff168173ffffffffffffffffffffffffffffffffffffffff16036125b9576040517f08c379a00000000000000000000000000000000000000000000000000000000081526004016125b090614f89565b60405180910390fd5b6125c28161302d565b50565b60007f553e757e000000000000000000000000000000000000000000000000000000007bffffffffffffffffffffffffffffffffffffffffffffffffffffffff1916827bffffffffffffffffffffffffffffffffffffffffffffffffffffffff1916148061263857506126378261263f565b5b9050919050565b60007f80ac58cd000000000000000000000000000000000000000000000000000000007bffffffffffffffffffffffffffffffffffffffffffffffffffffffff1916827bffffffffffffffffffffffffffffffffffffffffffffffffffffffff1916148061270a57507f5b5e139f000000000000000000000000000000000000000000000000000000007bffffffffffffffffffffffffffffffffffffffffffffffffffffffff1916827bffffffffffffffffffffffffffffffffffffffffffffffffffffffff1916145b8061271a5750612719826132b9565b5b9050919050565b60008073ffffffffffffffffffffffffffffffffffffffff166003600084815260200190815260200160002060009054906101000a900473ffffffffffffffffffffffffffffffffffffffff1673ffffffffffffffffffffffffffffffffffffffff1614159050919050565b600033905090565b816005600083815260200190815260200160002060006101000a81548173ffffffffffffffffffffffffffffffffffffffff021916908373ffffffffffffffffffffffffffffffffffffffff160217905550808273ffffffffffffffffffffffffffffffffffffffff166128088361173e565b73ffffffffffffffffffffffffffffffffffffffff167f8c5be1e5ebec7d5bd14f71427d1e84f3dd0314c0f7b2291e5b200ac8c7c3b92560405160405180910390a45050565b6000612876836000018373ffffffffffffffffffffffffffffffffffffffff1660001b613323565b905092915050565b600073ffffffffffffffffffffffffffffffffffffffff168273ffffffffffffffffffffffffffffffffffffffff16036128ed576040517f08c379a00000000000000000000000000000000000000000000000000000000081526004016128e490614ff5565b60405180910390fd5b6128f681612721565b15612936576040517f08c379a000000000000000000000000000000000000000000000000000000000815260040161292d90615061565b60405180910390fd5b61294260008383613346565b6001600460008473ffffffffffffffffffffffffffffffffffffffff1673ffffffffffffffffffffffffffffffffffffffff168152602001908152602001600020600082825461299291906144a1565b92505081905550816003600083815260200190815260200160002060006101000a81548173ffffffffffffffffffffffffffffffffffffffff021916908373ffffffffffffffffffffffffffffffffffffffff160217905550808273ffffffffffffffffffffffffffffffffffffffff16600073ffffffffffffffffffffffffffffffffffffffff167fddf252ad1be2c89b69c2b068fc378daa952ba7f163c4a11628f55a4df523b3ef60405160405180910390a45050565b6000612a5682612721565b612a95576040517f08c379a0000000000000000000000000000000000000000000000000000000008152600401612a8c906150f3565b60405180910390fd5b6000612aa08361173e565b90508073ffffffffffffffffffffffffffffffffffffffff168473ffffffffffffffffffffffffffffffffffffffff161480612b0f57508373ffffffffffffffffffffffffffffffffffffffff16612af784610a62565b73ffffffffffffffffffffffffffffffffffffffff16145b80612b205750612b1f818561243a565b5b91505092915050565b8273ffffffffffffffffffffffffffffffffffffffff16612b498261173e565b73ffffffffffffffffffffffffffffffffffffffff1614612b9f576040517f08c379a0000000000000000000000000000000000000000000000000000000008152600401612b9690615185565b60405180910390fd5b600073ffffffffffffffffffffffffffffffffffffffff168273ffffffffffffffffffffffffffffffffffffffff1603612c0e576040517f08c379a0000000000000000000000000000000000000000000000000000000008152600401612c0590615217565b60405180910390fd5b612c19838383613346565b612c24600082612795565b6001600460008573ffffffffffffffffffffffffffffffffffffffff1673ffffffffffffffffffffffffffffffffffffffff1681526020019081526020016000206000828254612c749190614d25565b925050819055506001600460008473ffffffffffffffffffffffffffffffffffffffff1673ffffffffffffffffffffffffffffffffffffffff1681526020019081526020016000206000828254612ccb91906144a1565b92505081905550816003600083815260200190815260200160002060006101000a81548173ffffffffffffffffffffffffffffffffffffffff021916908373ffffffffffffffffffffffffffffffffffffffff160217905550808273ffffffffffffffffffffffffffffffffffffffff168473ffffffffffffffffffffffffffffffffffffffff167fddf252ad1be2c89b69c2b068fc378daa952ba7f163c4a11628f55a4df523b3ef60405160405180910390a4505050565b6000612dac836000018373ffffffffffffffffffffffffffffffffffffffff1660001b61334b565b905092915050565b6000612dc28260000161345f565b9050919050565b6000612dd88360000183613470565b60001c905092915050565b6000612dee8261173e565b9050612dfc81600084613346565b612e07600083612795565b6001600460008373ffffffffffffffffffffffffffffffffffffffff1673ffffffffffffffffffffffffffffffffffffffff1681526020019081526020016000206000828254612e579190614d25565b925050819055506003600083815260200190815260200160002060006101000a81549073ffffffffffffffffffffffffffffffffffffffff021916905581600073ffffffffffffffffffffffffffffffffffffffff168273ffffffffffffffffffffffffffffffffffffffff167fddf252ad1be2c89b69c2b068fc378daa952ba7f163c4a11628f55a4df523b3ef60405160405180910390a45050565b600060013330601360009054906101000a900460ff16604051602001612f1c939291906152c7565b60405160208183030381529060405280519060200120604051602001612f42919061537c565b6040516020818303038152906040528051906020012085858560405160008152602001604052604051612f7894939291906153c0565b6020604051602081039080840390855afa158015612f9a573d6000803e3d6000fd5b5050506020604051035173ffffffffffffffffffffffffffffffffffffffff16601560009054906101000a900473ffffffffffffffffffffffffffffffffffffffff1673ffffffffffffffffffffffffffffffffffffffff161490509392505050565b6000613025836000018373ffffffffffffffffffffffffffffffffffffffff1660001b61349b565b905092915050565b60008060009054906101000a900473ffffffffffffffffffffffffffffffffffffffff169050816000806101000a81548173ffffffffffffffffffffffffffffffffffffffff021916908373ffffffffffffffffffffffffffffffffffffffff1602179055508173ffffffffffffffffffffffffffffffffffffffff168173ffffffffffffffffffffffffffffffffffffffff167f8be0079c531659141344cd1fd0a4f28419497f9722a3daafe3b4186f6b6457e060405160405180910390a35050565b8173ffffffffffffffffffffffffffffffffffffffff168373ffffffffffffffffffffffffffffffffffffffff160361315f576040517f08c379a000000000000000000000000000000000000000000000000000000000815260040161315690615451565b60405180910390fd5b80600660008573ffffffffffffffffffffffffffffffffffffffff1673ffffffffffffffffffffffffffffffffffffffff16815260200190815260200160002060008473ffffffffffffffffffffffffffffffffffffffff1673ffffffffffffffffffffffffffffffffffffffff16815260200190815260200160002060006101000a81548160ff0219169083151502179055508173ffffffffffffffffffffffffffffffffffffffff168373ffffffffffffffffffffffffffffffffffffffff167f17307eab39ab6107e8899845ad3d59bd9653f200f220920489ca2b5937696c31836040516132509190613881565b60405180910390a3505050565b613268848484612b29565b6132748484848461350b565b6132b3576040517f08c379a00000000000000000000000000000000000000000000000000000000081526004016132aa906154e3565b60405180910390fd5b50505050565b60007f01ffc9a7000000000000000000000000000000000000000000000000000000007bffffffffffffffffffffffffffffffffffffffffffffffffffffffff1916827bffffffffffffffffffffffffffffffffffffffffffffffffffffffff1916149050919050565b600080836001016000848152602001908152602001600020541415905092915050565b505050565b6000808360010160008481526020019081526020016000205490506000811461345357600060018261337d9190614d25565b90506000600186600001805490506133959190614d25565b90508181146134045760008660000182815481106133b6576133b56145f5565b5b90600052602060002001549050808760000184815481106133da576133d96145f5565b5b90600052602060002001819055508387600101600083815260200190815260200160002081905550505b8560000180548061341857613417615503565b5b600190038181906000526020600020016000905590558560010160008681526020019081526020016000206000905560019350505050613459565b60009150505b92915050565b600081600001805490509050919050565b6000826000018281548110613488576134876145f5565b5b9060005260206000200154905092915050565b60006134a78383613323565b613500578260000182908060018154018082558091505060019003906000526020600020016000909190919091505582600001805490508360010160008481526020019081526020016000208190555060019050613505565b600090505b92915050565b600061352c8473ffffffffffffffffffffffffffffffffffffffff16613692565b15613685578373ffffffffffffffffffffffffffffffffffffffff1663150b7a0261355561278d565b8786866040518563ffffffff1660e01b81526004016135779493929190615587565b6020604051808303816000875af19250505080156135b357506040513d601f19601f820116820180604052508101906135b091906155e8565b60015b613635573d80600081146135e3576040519150601f19603f3d011682016040523d82523d6000602084013e6135e8565b606091505b50600081510361362d576040517f08c379a0000000000000000000000000000000000000000000000000000000008152600401613624906154e3565b60405180910390fd5b805181602001fd5b63150b7a0260e01b7bffffffffffffffffffffffffffffffffffffffffffffffffffffffff1916817bffffffffffffffffffffffffffffffffffffffffffffffffffffffff19161491505061368a565b600190505b949350505050565b600080823b905060008111915050919050565b50805460008255906000526020600020908101906136c3919061374c565b50565b8280546136d290614149565b90600052602060002090601f0160209004810192826136f4576000855561373b565b82601f1061370d57803560ff191683800117855561373b565b8280016001018555821561373b579182015b8281111561373a57823582559160200191906001019061371f565b5b5090506137489190613770565b5090565b5b8082111561376c5760008181613763919061378d565b5060010161374d565b5090565b5b80821115613789576000816000905550600101613771565b5090565b50805461379990614149565b6000825580601f106137ab57506137ca565b601f0160209004906000526020600020908101906137c99190613770565b5b50565b6000604051905090565b600080fd5b600080fd5b60007fffffffff0000000000000000000000000000000000000000000000000000000082169050919050565b613816816137e1565b811461382157600080fd5b50565b6000813590506138338161380d565b92915050565b60006020828403121561384f5761384e6137d7565b5b600061385d84828501613824565b91505092915050565b60008115159050919050565b61387b81613866565b82525050565b60006020820190506138966000830184613872565b92915050565b600081519050919050565b600082825260208201905092915050565b60005b838110156138d65780820151818401526020810190506138bb565b838111156138e5576000848401525b50505050565b6000601f19601f8301169050919050565b60006139078261389c565b61391181856138a7565b93506139218185602086016138b8565b61392a816138eb565b840191505092915050565b6000602082019050818103600083015261394f81846138fc565b905092915050565b6000819050919050565b61396a81613957565b82525050565b60006020820190506139856000830184613961565b92915050565b61399481613957565b811461399f57600080fd5b50565b6000813590506139b18161398b565b92915050565b6000602082840312156139cd576139cc6137d7565b5b60006139db848285016139a2565b91505092915050565b600073ffffffffffffffffffffffffffffffffffffffff82169050919050565b6000613a0f826139e4565b9050919050565b613a1f81613a04565b82525050565b6000602082019050613a3a6000830184613a16565b92915050565b613a4981613a04565b8114613a5457600080fd5b50565b600081359050613a6681613a40565b92915050565b60008060408385031215613a8357613a826137d7565b5b6000613a9185828601613a57565b9250506020613aa2858286016139a2565b9150509250929050565b60008060408385031215613ac357613ac26137d7565b5b6000613ad1858286016139a2565b9250506020613ae285828601613a57565b9150509250929050565b600080600060608486031215613b0557613b046137d7565b5b6000613b1386828701613a57565b9350506020613b2486828701613a57565b9250506040613b35868287016139a2565b9150509250925092565b600060208284031215613b5557613b546137d7565b5b6000613b6384828501613a57565b91505092915050565b600081519050919050565b600082825260208201905092915050565b6000819050602082019050919050565b613ba181613a04565b82525050565b6000613bb38383613b98565b60208301905092915050565b6000602082019050919050565b6000613bd782613b6c565b613be18185613b77565b9350613bec83613b88565b8060005b83811015613c1d578151613c048882613ba7565b9750613c0f83613bbf565b925050600181019050613bf0565b5085935050505092915050565b60006020820190508181036000830152613c448184613bcc565b905092915050565b600060ff82169050919050565b613c6281613c4c565b8114613c6d57600080fd5b50565b600081359050613c7f81613c59565b92915050565b6000819050919050565b613c9881613c85565b8114613ca357600080fd5b50565b600081359050613cb581613c8f565b92915050565b60008060008060808587031215613cd557613cd46137d7565b5b6000613ce3878288016139a2565b9450506020613cf487828801613c70565b9350506040613d0587828801613ca6565b9250506060613d1687828801613ca6565b91505092959194509250565b60008060408385031215613d3957613d386137d7565b5b6000613d47858286016139a2565b9250506020613d58858286016139a2565b9150509250929050565b6000613d6d826139e4565b9050919050565b613d7d81613d62565b8114613d8857600080fd5b50565b600081359050613d9a81613d74565b92915050565b60008060408385031215613db757613db66137d7565b5b6000613dc585828601613d8b565b9250506020613dd6858286016139a2565b9150509250929050565b613de981613866565b8114613df457600080fd5b50565b600081359050613e0681613de0565b92915050565b60008060408385031215613e2357613e226137d7565b5b6000613e3185828601613a57565b9250506020613e4285828601613df7565b9150509250929050565b600080fd5b600080fd5b600080fd5b60008083601f840112613e7157613e70613e4c565b5b8235905067ffffffffffffffff811115613e8e57613e8d613e51565b5b602083019150836020820283011115613eaa57613ea9613e56565b5b9250929050565b60008060208385031215613ec857613ec76137d7565b5b600083013567ffffffffffffffff811115613ee657613ee56137dc565b5b613ef285828601613e5b565b92509250509250929050565b600080fd5b7f4e487b7100000000000000000000000000000000000000000000000000000000600052604160045260246000fd5b613f3b826138eb565b810181811067ffffffffffffffff82111715613f5a57613f59613f03565b5b80604052505050565b6000613f6d6137cd565b9050613f798282613f32565b919050565b600067ffffffffffffffff821115613f9957613f98613f03565b5b613fa2826138eb565b9050602081019050919050565b82818337600083830152505050565b6000613fd1613fcc84613f7e565b613f63565b905082815260208101848484011115613fed57613fec613efe565b5b613ff8848285613faf565b509392505050565b600082601f83011261401557614014613e4c565b5b8135614025848260208601613fbe565b91505092915050565b60008060008060808587031215614048576140476137d7565b5b600061405687828801613a57565b945050602061406787828801613a57565b9350506040614078878288016139a2565b925050606085013567ffffffffffffffff811115614099576140986137dc565b5b6140a587828801614000565b91505092959194509250565b60006040820190506140c66000830185613a16565b6140d36020830184613961565b9392505050565b600080604083850312156140f1576140f06137d7565b5b60006140ff85828601613a57565b925050602061411085828601613a57565b9150509250929050565b7f4e487b7100000000000000000000000000000000000000000000000000000000600052602260045260246000fd5b6000600282049050600182168061416157607f821691505b6020821081036141745761417361411a565b5b50919050565b7f4552433732313a20617070726f76656420717565727920666f72206e6f6e657860008201527f697374656e7420746f6b656e0000000000000000000000000000000000000000602082015250565b60006141d6602c836138a7565b91506141e18261417a565b604082019050919050565b60006020820190508181036000830152614205816141c9565b9050919050565b7f4552433732313a20617070726f76616c20746f2063757272656e74206f776e6560008201527f7200000000000000000000000000000000000000000000000000000000000000602082015250565b60006142686021836138a7565b91506142738261420c565b604082019050919050565b600060208201905081810360008301526142978161425b565b9050919050565b7f4552433732313a20617070726f76652063616c6c6572206973206e6f74206f7760008201527f6e6572206e6f7220617070726f76656420666f7220616c6c0000000000000000602082015250565b60006142fa6038836138a7565b91506143058261429e565b604082019050919050565b60006020820190508181036000830152614329816142ed565b9050919050565b7f41646d696e436f6e74726f6c3a204d757374206265206f776e6572206f72206160008201527f646d696e00000000000000000000000000000000000000000000000000000000602082015250565b600061438c6024836138a7565b915061439782614330565b604082019050919050565b600060208201905081810360008301526143bb8161437f565b9050919050565b6000819050919050565b6000819050919050565b60006143f16143ec6143e7846143c2565b6143cc565b613957565b9050919050565b614401816143d6565b82525050565b600060408201905061441c6000830185613a16565b61442960208301846143f8565b9392505050565b60008151905061443f8161398b565b92915050565b60006020828403121561445b5761445a6137d7565b5b600061446984828501614430565b91505092915050565b7f4e487b7100000000000000000000000000000000000000000000000000000000600052601160045260246000fd5b60006144ac82613957565b91506144b783613957565b9250827fffffffffffffffffffffffffffffffffffffffffffffffffffffffffffffffff038211156144ec576144eb614472565b5b828201905092915050565b7f4552433732313a207472616e736665722063616c6c6572206973206e6f74206f60008201527f776e6572206e6f7220617070726f766564000000000000000000000000000000602082015250565b60006145536031836138a7565b915061455e826144f7565b604082019050919050565b6000602082019050818103600083015261458281614546565b9050919050565b7f4f776e61626c653a2063616c6c6572206973206e6f7420746865206f776e6572600082015250565b60006145bf6020836138a7565b91506145ca82614589565b602082019050919050565b600060208201905081810360008301526145ee816145b2565b9050919050565b7f4e487b7100000000000000000000000000000000000000000000000000000000600052603260045260246000fd5b600061462f82613957565b91507fffffffffffffffffffffffffffffffffffffffffffffffffffffffffffffffff820361466157614660614472565b5b600182019050919050565b7f596f752063616e206f6e6c79206275726e20796f7572206f776e20746f6b656e60008201527f7300000000000000000000000000000000000000000000000000000000000000602082015250565b60006146c86021836138a7565b91506146d38261466c565b604082019050919050565b600060208201905081810360008301526146f7816146bb565b9050919050565b7f4d696e74206e6f7420616c6c6f77656400000000000000000000000000000000600082015250565b60006147346010836138a7565b915061473f826146fe565b602082019050919050565b6000602082019050818103600083015261476381614727565b9050919050565b7f496e737566666963656e742066756e64732073656e7400000000000000000000600082015250565b60006147a06016836138a7565b91506147ab8261476a565b602082019050919050565b600060208201905081810360008301526147cf81614793565b9050919050565b7f496e76616c696420746f6b656e20666f726d0000000000000000000000000000600082015250565b600061480c6012836138a7565b9150614817826147d6565b602082019050919050565b6000602082019050818103600083015261483b816147ff565b9050919050565b7f496e76616c6964207175616e74697479206f6620424820746f206465706f736960008201527f7400000000000000000000000000000000000000000000000000000000000000602082015250565b600061489e6021836138a7565b91506148a982614842565b604082019050919050565b600060208201905081810360008301526148cd81614891565b9050919050565b7f596f752063616e206f6e6c79206465706f73697420424820746f206120746f6b60008201527f656e20796f75206f776e00000000000000000000000000000000000000000000602082015250565b6000614930602a836138a7565b915061493b826148d4565b604082019050919050565b6000602082019050818103600083015261495f81614923565b9050919050565b7f546865726520697320616c72656164792061207374616765203320746f6b656e60008201527f20666f72207468617420666f726d000000000000000000000000000000000000602082015250565b60006149c2602e836138a7565b91506149cd82614966565b604082019050919050565b600060208201905081810360008301526149f1816149b5565b9050919050565b6000606082019050614a0d6000830186613a16565b614a1a6020830185613a16565b614a276040830184613961565b949350505050565b600081519050614a3e81613de0565b92915050565b600060208284031215614a5a57614a596137d7565b5b6000614a6884828501614a2f565b91505092915050565b7f4552433732313a206f776e657220717565727920666f72206e6f6e657869737460008201527f656e7420746f6b656e0000000000000000000000000000000000000000000000602082015250565b6000614acd6029836138a7565b9150614ad882614a71565b604082019050919050565b60006020820190508181036000830152614afc81614ac0565b9050919050565b7f4552433732313a2062616c616e636520717565727920666f7220746865207a6560008201527f726f206164647265737300000000000000000000000000000000000000000000602082015250565b6000614b5f602a836138a7565b9150614b6a82614b03565b604082019050919050565b60006020820190508181036000830152614b8e81614b52565b9050919050565b7f496e76616c6964207175616e74697479206f6620424820746f2077697468647260008201527f6177000000000000000000000000000000000000000000000000000000000000602082015250565b6000614bf16022836138a7565b9150614bfc82614b95565b604082019050919050565b60006020820190508181036000830152614c2081614be4565b9050919050565b7f596f752063616e206f6e6c792077697468647261772042482066726f6d20746860008201527f6520746f6b656e20796f75206f776e0000000000000000000000000000000000602082015250565b6000614c83602f836138a7565b9150614c8e82614c27565b604082019050919050565b60006020820190508181036000830152614cb281614c76565b9050919050565b7f4e6f7420656e6f75676820424820746f20776974686472617700000000000000600082015250565b6000614cef6019836138a7565b9150614cfa82614cb9565b602082019050919050565b60006020820190508181036000830152614d1e81614ce2565b9050919050565b6000614d3082613957565b9150614d3b83613957565b925082821015614d4e57614d4d614472565b5b828203905092915050565b600080fd5b600080fd5b600080fd5b60008083356001602003843603038112614d8557614d84614d59565b5b80840192508235915067ffffffffffffffff821115614da757614da6614d5e565b5b602083019250600182023603831315614dc357614dc2614d63565b5b509250929050565b7f4552433732314d657461646174613a2055524920717565727920666f72206e6f60008201527f6e6578697374656e7420746f6b656e0000000000000000000000000000000000602082015250565b6000614e27602f836138a7565b9150614e3282614dcb565b604082019050919050565b60006020820190508181036000830152614e5681614e1a565b9050919050565b6000614e6882613957565b9150614e7383613957565b9250817fffffffffffffffffffffffffffffffffffffffffffffffffffffffffffffffff0483118215151615614eac57614eab614472565b5b828202905092915050565b7f4e487b7100000000000000000000000000000000000000000000000000000000600052601260045260246000fd5b6000614ef182613957565b9150614efc83613957565b925082614f0c57614f0b614eb7565b5b828204905092915050565b7f4f776e61626c653a206e6577206f776e657220697320746865207a65726f206160008201527f6464726573730000000000000000000000000000000000000000000000000000602082015250565b6000614f736026836138a7565b9150614f7e82614f17565b604082019050919050565b60006020820190508181036000830152614fa281614f66565b9050919050565b7f4552433732313a206d696e7420746f20746865207a65726f2061646472657373600082015250565b6000614fdf6020836138a7565b9150614fea82614fa9565b602082019050919050565b6000602082019050818103600083015261500e81614fd2565b9050919050565b7f4552433732313a20746f6b656e20616c7265616479206d696e74656400000000600082015250565b600061504b601c836138a7565b915061505682615015565b602082019050919050565b6000602082019050818103600083015261507a8161503e565b9050919050565b7f4552433732313a206f70657261746f7220717565727920666f72206e6f6e657860008201527f697374656e7420746f6b656e0000000000000000000000000000000000000000602082015250565b60006150dd602c836138a7565b91506150e882615081565b604082019050919050565b6000602082019050818103600083015261510c816150d0565b9050919050565b7f4552433732313a207472616e73666572206f6620746f6b656e2074686174206960008201527f73206e6f74206f776e0000000000000000000000000000000000000000000000602082015250565b600061516f6029836138a7565b915061517a82615113565b604082019050919050565b6000602082019050818103600083015261519e81615162565b9050919050565b7f4552433732313a207472616e7366657220746f20746865207a65726f2061646460008201527f7265737300000000000000000000000000000000000000000000000000000000602082015250565b60006152016024836138a7565b915061520c826151a5565b604082019050919050565b60006020820190508181036000830152615230816151f4565b9050919050565b60008160601b9050919050565b600061524f82615237565b9050919050565b600061526182615244565b9050919050565b61527961527482613a04565b615256565b82525050565b60008160f81b9050919050565b60006152978261527f565b9050919050565b60006152a98261528c565b9050919050565b6152c16152bc82613866565b61529e565b82525050565b60006152d38286615268565b6014820191506152e38285615268565b6014820191506152f382846152b0565b600182019150819050949350505050565b600081905092915050565b7f19457468657265756d205369676e6564204d6573736167653a0a333200000000600082015250565b6000615345601c83615304565b91506153508261530f565b601c82019050919050565b6000819050919050565b61537661537182613c85565b61535b565b82525050565b600061538782615338565b91506153938284615365565b60208201915081905092915050565b6153ab81613c85565b82525050565b6153ba81613c4c565b82525050565b60006080820190506153d560008301876153a2565b6153e260208301866153b1565b6153ef60408301856153a2565b6153fc60608301846153a2565b95945050505050565b7f4552433732313a20617070726f766520746f2063616c6c657200000000000000600082015250565b600061543b6019836138a7565b915061544682615405565b602082019050919050565b6000602082019050818103600083015261546a8161542e565b9050919050565b7f4552433732313a207472616e7366657220746f206e6f6e20455243373231526560008201527f63656976657220696d706c656d656e7465720000000000000000000000000000602082015250565b60006154cd6032836138a7565b91506154d882615471565b604082019050919050565b600060208201905081810360008301526154fc816154c0565b9050919050565b7f4e487b7100000000000000000000000000000000000000000000000000000000600052603160045260246000fd5b600081519050919050565b600082825260208201905092915050565b600061555982615532565b615563818561553d565b93506155738185602086016138b8565b61557c816138eb565b840191505092915050565b600060808201905061559c6000830187613a16565b6155a96020830186613a16565b6155b66040830185613961565b81810360608301526155c8818461554e565b905095945050505050565b6000815190506155e28161380d565b92915050565b6000602082840312156155fe576155fd6137d7565b5b600061560c848285016155d3565b9150509291505056fea2646970667358221220fc2444c546a1baad3c3d863e566739063b4986b7f80e2b1d3f95331eeeeb982264736f6c634300080d0033",
  "immutableReferences": {},
  "source": "// SPDX-License-Identifier: MIT\n\npragma solidity >= 0.8.13;\n\nimport \"@openzeppelin/contracts/token/ERC721/ERC721.sol\";\nimport \"@openzeppelin/contracts/token/ERC20/IERC20.sol\";\nimport \"@manifoldxyz/royalty-registry-solidity/contracts/specs/IEIP2981.sol\";\nimport \"@manifoldxyz/libraries-solidity/contracts/access/AdminControl.sol\";\nimport \"./BH.sol\";\n\ncontract blackhole is ERC721, AdminControl {\n    \n    uint256 public _ethPrice = 0.1*10**18; //0.1 ETH\n    uint256 private _royaltyAmount; //in % \n    uint256 private _stage1BalanceRequirement = 1;\n    uint256 private _stage2BalanceRequirement = 10000;\n    uint256 private _stage3BalanceRequirement = 20000;\n    uint256 private _nextTokenId = 1;\n\n    mapping (uint256 => uint256) _tokenForms;\n\n    string[] _uris;\n\n    mapping (uint256 => uint256) public _BHBalances;\n\n    mapping (uint256 => uint256) public _stage3TokenIds; // mapping form to tokenId\n\n    bool public _mintOpened;\n    bool public  _shootingStarMinted;\n\n    address public _BHAddress;\n    address payable  private _royalties_recipient;\n    address private _signer;\n\n    event Stag3Activated  (uint256 tokenId);\n    \n    constructor () ERC721(\"blackhole\",\"bh\") {\n        _royalties_recipient = payable(msg.sender);\n        _royaltyAmount = 10;\n\n    } \n\n    function supportsInterface(bytes4 interfaceId)\n        public\n        view\n        virtual\n        override(ERC721, AdminControl)\n        returns (bool)\n    {\n        return\n        AdminControl.supportsInterface(interfaceId) ||\n        ERC721.supportsInterface(interfaceId) ||\n        interfaceId == type(IEIP2981).interfaceId ||\n        super.supportsInterface(interfaceId);\n    }\n\n    function mintAllowed(uint8 v, bytes32 r, bytes32 s)internal view returns(bool){\n        return(\n            _signer ==\n                ecrecover(\n                    keccak256(\n                        abi.encodePacked(\n                            \"\\x19Ethereum Signed Message:\\n32\",\n                            keccak256(\n                                abi.encodePacked(\n                                    msg.sender,\n                                    address(this),\n                                    _mintOpened\n                                )\n                            )\n                        )\n                    )\n                , v, r, s)\n        );\n    }\n\n    function setBHAddress(address BHAddress) external adminRequired{\n        _BHAddress = BHAddress;\n    }\n\n    function setSigner (address signer) external adminRequired{\n        _signer = signer;\n    }\n\n    function publicMint(\n        uint256 tokenForm,\n        uint8 v,\n        bytes32 r, \n        bytes32 s\n    ) external payable{\n        require(mintAllowed( v, r, s), \"Mint not allowed\");\n        require(msg.value >= _ethPrice, \"Insufficent funds sent\");\n        require(tokenForm >= 1 && tokenForm <= 3, \"Invalid token form\");\n        payable(_royalties_recipient).transfer(_ethPrice);\n        _mint(msg.sender , _nextTokenId);\n        _tokenForms[_nextTokenId] = tokenForm;\n        _BHBalances[_nextTokenId] = BH(_BHAddress).mint(address(this), 1);\n        _nextTokenId += 1;\n    }\n\n    function adminMint(\n        uint256 tokenForm,\n        address account\n    ) external adminRequired{\n        _mint(account ,_nextTokenId);\n        _tokenForms[_nextTokenId] = tokenForm;\n        _BHBalances[_nextTokenId] = BH(_BHAddress).mint(account, 1);\n        _nextTokenId += 1;\n    }\n\n\n    function getBHBalance(uint256 tokenId) view public returns(uint256 blalance){\n        return(_BHBalances[tokenId]);\n    }\n\n    function toggleMintState()external adminRequired{\n        _mintOpened = !_mintOpened;\n    }\n\n    function updateURIs(string [] calldata uris) public adminRequired{\n        delete _uris;\n        for(uint256 i=0; i < uris.length; i++){\n            _uris.push(uris[i]);\n        }\n    }\n\n    function tokenURI(uint256 tokenId) public view override returns (string memory) {\n        require(_exists(tokenId), \"ERC721Metadata: URI query for nonexistent token\");\n        uint256 tokenStage;\n        tokenStage = _BHBalances[tokenId] < _stage1BalanceRequirement ? 0 : _BHBalances[tokenId] < _stage2BalanceRequirement ? 3 : _BHBalances[tokenId] < _stage3BalanceRequirement ? 6 : 9;\n        return(_uris[ _tokenForms[tokenId] + tokenStage - 1]);\n    }\n\n    function burn(uint256 tokenId) public {\n        require(ownerOf(tokenId)== msg.sender, \"You can only burn your own tokens\");\n        _burn(tokenId);\n    }\n\n    function setRoyalties(address payable _recipient, uint256 _royaltyPerCent) external adminRequired {\n        _royalties_recipient = _recipient;\n        _royaltyAmount = _royaltyPerCent;\n    }\n\n    function royaltyInfo(uint256 salePrice) external view returns (address, uint256) {\n        if(_royalties_recipient != address(0)){\n            return (_royalties_recipient, (salePrice * _royaltyAmount) / 100 );\n        }\n        return (address(0), 0);\n    }\n\n    function depositBH(uint256 tokenId, uint256 quantity) external{\n        require(quantity > 0, \"Invalid quantity of BH to deposit\");\n        require(ownerOf(tokenId)==msg.sender,\"You can only deposit BH to a token you own\");\n        uint256 tokenBalance = getBHBalance(tokenId);\n        if(tokenBalance + quantity >= _stage3BalanceRequirement){\n            require(_stage3TokenIds[_tokenForms[tokenId]] == 0, \"There is already a stage 3 token for that form\");\n            _stage3TokenIds[_tokenForms[tokenId]] = tokenId;\n            emit Stag3Activated(tokenId);\n        }\n        BH(_BHAddress).transferFrom(msg.sender, address(this), quantity);\n        _BHBalances[tokenId] += quantity;\n    }\n    \n    function withdrawBH(uint256 tokenId,uint256 quantity) external{\n        require(quantity > 0, \"Invalid quantity of BH to withdraw\");\n        require(ownerOf(tokenId)==msg.sender,\"You can only withdraw BH from the token you own\");\n        require(_BHBalances[tokenId] >= quantity, \"Not enough BH to withdraw\");\n        uint256 tokenBalance = getBHBalance(tokenId);\n        if( _stage3TokenIds[_tokenForms[tokenId]] == tokenId && (tokenBalance - quantity) < _stage3BalanceRequirement){\n            _stage3TokenIds[_tokenForms[tokenId]] = 0;\n        }\n        BH(_BHAddress).transfer(msg.sender, quantity);\n        _BHBalances[tokenId] -= quantity;\n    }\n\n    function withdraw(address recipient) external adminRequired {\n        payable(recipient).transfer(address(this).balance);\n    }\n\n}",
  "sourcePath": "/Users/bct/Documents/Dev/NFT_dev/Blackhole/contracts/blackhole.sol",
  "compiler": {
    "name": "solc",
    "version": "0.8.13+commit.abaa5c0e.Emscripten.clang"
  },
  "schemaVersion": "3.4.4",
  "updatedAt": "2022-06-16T16:08:40.035Z",
  "devdoc": {
    "kind": "dev",
    "methods": {
      "approve(address,uint256)": {
        "details": "See {IERC721-approve}."
      },
      "approveAdmin(address)": {
        "details": "See {IAdminControl-approveAdmin}."
      },
      "balanceOf(address)": {
        "details": "See {IERC721-balanceOf}."
      },
      "getAdmins()": {
        "details": "See {IAdminControl-getAdmins}."
      },
      "getApproved(uint256)": {
        "details": "See {IERC721-getApproved}."
      },
      "isAdmin(address)": {
        "details": "See {IAdminControl-isAdmin}."
      },
      "isApprovedForAll(address,address)": {
        "details": "See {IERC721-isApprovedForAll}."
      },
      "name()": {
        "details": "See {IERC721Metadata-name}."
      },
      "owner()": {
        "details": "Returns the address of the current owner."
      },
      "ownerOf(uint256)": {
        "details": "See {IERC721-ownerOf}."
      },
      "renounceOwnership()": {
        "details": "Leaves the contract without owner. It will not be possible to call `onlyOwner` functions anymore. Can only be called by the current owner. NOTE: Renouncing ownership will leave the contract without an owner, thereby removing any functionality that is only available to the owner."
      },
      "revokeAdmin(address)": {
        "details": "See {IAdminControl-revokeAdmin}."
      },
      "safeTransferFrom(address,address,uint256)": {
        "details": "See {IERC721-safeTransferFrom}."
      },
      "safeTransferFrom(address,address,uint256,bytes)": {
        "details": "See {IERC721-safeTransferFrom}."
      },
      "setApprovalForAll(address,bool)": {
        "details": "See {IERC721-setApprovalForAll}."
      },
      "symbol()": {
        "details": "See {IERC721Metadata-symbol}."
      },
      "tokenURI(uint256)": {
        "details": "See {IERC721Metadata-tokenURI}."
      },
      "transferFrom(address,address,uint256)": {
        "details": "See {IERC721-transferFrom}."
      },
      "transferOwnership(address)": {
        "details": "Transfers ownership of the contract to a new account (`newOwner`). Can only be called by the current owner."
      }
    },
    "version": 1
  },
  "userdoc": {
    "kind": "user",
    "methods": {},
    "version": 1
  }
}