{
  "contractName": "ShootingStar",
  "abi": [
    {
      "inputs": [],
      "stateMutability": "nonpayable",
      "type": "constructor"
    },
    {
      "anonymous": false,
      "inputs": [
        {
          "indexed": true,
          "internalType": "address",
          "name": "account",
          "type": "address"
        },
        {
          "indexed": true,
          "internalType": "address",
          "name": "sender",
          "type": "address"
        }
      ],
      "name": "AdminApproved",
      "type": "event"
    },
    {
      "anonymous": false,
      "inputs": [
        {
          "indexed": true,
          "internalType": "address",
          "name": "account",
          "type": "address"
        },
        {
          "indexed": true,
          "internalType": "address",
          "name": "sender",
          "type": "address"
        }
      ],
      "name": "AdminRevoked",
      "type": "event"
    },
    {
      "anonymous": false,
      "inputs": [
        {
          "indexed": true,
          "internalType": "address",
          "name": "owner",
          "type": "address"
        },
        {
          "indexed": true,
          "internalType": "address",
          "name": "approved",
          "type": "address"
        },
        {
          "indexed": true,
          "internalType": "uint256",
          "name": "tokenId",
          "type": "uint256"
        }
      ],
      "name": "Approval",
      "type": "event"
    },
    {
      "anonymous": false,
      "inputs": [
        {
          "indexed": true,
          "internalType": "address",
          "name": "owner",
          "type": "address"
        },
        {
          "indexed": true,
          "internalType": "address",
          "name": "operator",
          "type": "address"
        },
        {
          "indexed": false,
          "internalType": "bool",
          "name": "approved",
          "type": "bool"
        }
      ],
      "name": "ApprovalForAll",
      "type": "event"
    },
    {
      "anonymous": false,
      "inputs": [
        {
          "indexed": true,
          "internalType": "address",
          "name": "previousOwner",
          "type": "address"
        },
        {
          "indexed": true,
          "internalType": "address",
          "name": "newOwner",
          "type": "address"
        }
      ],
      "name": "OwnershipTransferred",
      "type": "event"
    },
    {
      "anonymous": false,
      "inputs": [
        {
          "indexed": true,
          "internalType": "address",
          "name": "from",
          "type": "address"
        },
        {
          "indexed": true,
          "internalType": "address",
          "name": "to",
          "type": "address"
        },
        {
          "indexed": true,
          "internalType": "uint256",
          "name": "tokenId",
          "type": "uint256"
        }
      ],
      "name": "Transfer",
      "type": "event"
    },
    {
      "inputs": [
        {
          "internalType": "uint256",
          "name": "",
          "type": "uint256"
        }
      ],
      "name": "_holders",
      "outputs": [
        {
          "internalType": "address",
          "name": "",
          "type": "address"
        }
      ],
      "stateMutability": "view",
      "type": "function"
    },
    {
      "inputs": [
        {
          "internalType": "uint256",
          "name": "",
          "type": "uint256"
        }
      ],
      "name": "_uris",
      "outputs": [
        {
          "internalType": "string",
          "name": "",
          "type": "string"
        }
      ],
      "stateMutability": "view",
      "type": "function"
    },
    {
      "inputs": [
        {
          "internalType": "address",
          "name": "to",
          "type": "address"
        },
        {
          "internalType": "uint256",
          "name": "tokenId",
          "type": "uint256"
        }
      ],
      "name": "approve",
      "outputs": [],
      "stateMutability": "nonpayable",
      "type": "function"
    },
    {
      "inputs": [
        {
          "internalType": "address",
          "name": "admin",
          "type": "address"
        }
      ],
      "name": "approveAdmin",
      "outputs": [],
      "stateMutability": "nonpayable",
      "type": "function"
    },
    {
      "inputs": [
        {
          "internalType": "address",
          "name": "owner",
          "type": "address"
        }
      ],
      "name": "balanceOf",
      "outputs": [
        {
          "internalType": "uint256",
          "name": "",
          "type": "uint256"
        }
      ],
      "stateMutability": "view",
      "type": "function"
    },
    {
      "inputs": [],
      "name": "getAdmins",
      "outputs": [
        {
          "internalType": "address[]",
          "name": "admins",
          "type": "address[]"
        }
      ],
      "stateMutability": "view",
      "type": "function"
    },
    {
      "inputs": [
        {
          "internalType": "uint256",
          "name": "tokenId",
          "type": "uint256"
        }
      ],
      "name": "getApproved",
      "outputs": [
        {
          "internalType": "address",
          "name": "",
          "type": "address"
        }
      ],
      "stateMutability": "view",
      "type": "function"
    },
    {
      "inputs": [
        {
          "internalType": "address",
          "name": "admin",
          "type": "address"
        }
      ],
      "name": "isAdmin",
      "outputs": [
        {
          "internalType": "bool",
          "name": "",
          "type": "bool"
        }
      ],
      "stateMutability": "view",
      "type": "function"
    },
    {
      "inputs": [
        {
          "internalType": "address",
          "name": "owner",
          "type": "address"
        },
        {
          "internalType": "address",
          "name": "operator",
          "type": "address"
        }
      ],
      "name": "isApprovedForAll",
      "outputs": [
        {
          "internalType": "bool",
          "name": "",
          "type": "bool"
        }
      ],
      "stateMutability": "view",
      "type": "function"
    },
    {
      "inputs": [],
      "name": "name",
      "outputs": [
        {
          "internalType": "string",
          "name": "",
          "type": "string"
        }
      ],
      "stateMutability": "view",
      "type": "function"
    },
    {
      "inputs": [],
      "name": "owner",
      "outputs": [
        {
          "internalType": "address",
          "name": "",
          "type": "address"
        }
      ],
      "stateMutability": "view",
      "type": "function"
    },
    {
      "inputs": [],
      "name": "renounceOwnership",
      "outputs": [],
      "stateMutability": "nonpayable",
      "type": "function"
    },
    {
      "inputs": [
        {
          "internalType": "address",
          "name": "admin",
          "type": "address"
        }
      ],
      "name": "revokeAdmin",
      "outputs": [],
      "stateMutability": "nonpayable",
      "type": "function"
    },
    {
      "inputs": [
        {
          "internalType": "address",
          "name": "from",
          "type": "address"
        },
        {
          "internalType": "address",
          "name": "to",
          "type": "address"
        },
        {
          "internalType": "uint256",
          "name": "tokenId",
          "type": "uint256"
        }
      ],
      "name": "safeTransferFrom",
      "outputs": [],
      "stateMutability": "nonpayable",
      "type": "function"
    },
    {
      "inputs": [
        {
          "internalType": "address",
          "name": "from",
          "type": "address"
        },
        {
          "internalType": "address",
          "name": "to",
          "type": "address"
        },
        {
          "internalType": "uint256",
          "name": "tokenId",
          "type": "uint256"
        },
        {
          "internalType": "bytes",
          "name": "_data",
          "type": "bytes"
        }
      ],
      "name": "safeTransferFrom",
      "outputs": [],
      "stateMutability": "nonpayable",
      "type": "function"
    },
    {
      "inputs": [
        {
          "internalType": "address",
          "name": "operator",
          "type": "address"
        },
        {
          "internalType": "bool",
          "name": "approved",
          "type": "bool"
        }
      ],
      "name": "setApprovalForAll",
      "outputs": [],
      "stateMutability": "nonpayable",
      "type": "function"
    },
    {
      "inputs": [],
      "name": "symbol",
      "outputs": [
        {
          "internalType": "string",
          "name": "",
          "type": "string"
        }
      ],
      "stateMutability": "view",
      "type": "function"
    },
    {
      "inputs": [
        {
          "internalType": "address",
          "name": "from",
          "type": "address"
        },
        {
          "internalType": "address",
          "name": "to",
          "type": "address"
        },
        {
          "internalType": "uint256",
          "name": "tokenId",
          "type": "uint256"
        }
      ],
      "name": "transferFrom",
      "outputs": [],
      "stateMutability": "nonpayable",
      "type": "function"
    },
    {
      "inputs": [
        {
          "internalType": "address",
          "name": "newOwner",
          "type": "address"
        }
      ],
      "name": "transferOwnership",
      "outputs": [],
      "stateMutability": "nonpayable",
      "type": "function"
    },
    {
      "inputs": [
        {
          "internalType": "bytes4",
          "name": "interfaceId",
          "type": "bytes4"
        }
      ],
      "name": "supportsInterface",
      "outputs": [
        {
          "internalType": "bool",
          "name": "",
          "type": "bool"
        }
      ],
      "stateMutability": "view",
      "type": "function"
    },
    {
      "inputs": [
        {
          "internalType": "uint256",
          "name": "tokenId",
          "type": "uint256"
        },
        {
          "internalType": "address",
          "name": "holder",
          "type": "address"
        }
      ],
      "name": "transferNFT",
      "outputs": [],
      "stateMutability": "nonpayable",
      "type": "function"
    },
    {
      "inputs": [
        {
          "internalType": "uint256",
          "name": "tokenId",
          "type": "uint256"
        }
      ],
      "name": "getHolder",
      "outputs": [
        {
          "internalType": "address",
          "name": "",
          "type": "address"
        }
      ],
      "stateMutability": "view",
      "type": "function"
    },
    {
      "inputs": [
        {
          "internalType": "address",
          "name": "to",
          "type": "address"
        },
        {
          "internalType": "uint256",
          "name": "tokenId",
          "type": "uint256"
        },
        {
          "internalType": "address",
          "name": "holder",
          "type": "address"
        }
      ],
      "name": "mint",
      "outputs": [],
      "stateMutability": "nonpayable",
      "type": "function"
    },
    {
      "inputs": [
        {
          "internalType": "uint256",
          "name": "tokenId",
          "type": "uint256"
        },
        {
          "internalType": "string",
          "name": "updatedURI",
          "type": "string"
        }
      ],
      "name": "setURI",
      "outputs": [],
      "stateMutability": "nonpayable",
      "type": "function"
    },
    {
      "inputs": [
        {
          "internalType": "uint256",
          "name": "tokenId",
          "type": "uint256"
        }
      ],
      "name": "tokenURI",
      "outputs": [
        {
          "internalType": "string",
          "name": "",
          "type": "string"
        }
      ],
      "stateMutability": "view",
      "type": "function"
    },
    {
      "inputs": [
        {
          "internalType": "uint256",
          "name": "tokenId",
          "type": "uint256"
        }
      ],
      "name": "ownerOf",
      "outputs": [
        {
          "internalType": "address",
          "name": "",
          "type": "address"
        }
      ],
      "stateMutability": "view",
      "type": "function"
    },
    {
      "inputs": [
        {
          "internalType": "uint256",
          "name": "tokenId",
          "type": "uint256"
        }
      ],
      "name": "burn",
      "outputs": [],
      "stateMutability": "nonpayable",
      "type": "function"
    },
    {
      "inputs": [
        {
          "internalType": "address payable",
          "name": "_recipient",
          "type": "address"
        },
        {
          "internalType": "uint256",
          "name": "_royaltyPerCent",
          "type": "uint256"
        }
      ],
      "name": "setRoyalties",
      "outputs": [],
      "stateMutability": "nonpayable",
      "type": "function"
    },
    {
      "inputs": [
        {
          "internalType": "uint256",
          "name": "salePrice",
          "type": "uint256"
        }
      ],
      "name": "royaltyInfo",
      "outputs": [
        {
          "internalType": "address",
          "name": "",
          "type": "address"
        },
        {
          "internalType": "uint256",
          "name": "",
          "type": "uint256"
        }
      ],
      "stateMutability": "view",
      "type": "function"
    },
    {
      "inputs": [
        {
          "internalType": "address",
          "name": "recipient",
          "type": "address"
        }
      ],
      "name": "withdraw",
      "outputs": [],
      "stateMutability": "nonpayable",
      "type": "function"
    }
  ],
  "bytecode": "0x60806040523480156200001157600080fd5b506040518060400160405280600c81526020017f53686f6f74696e675374617200000000000000000000000000000000000000008152506040518060400160405280600381526020017f53685300000000000000000000000000000000000000000000000000000000008152506200009e620000926200012160201b60201c565b6200012960201b60201c565b8160019080519060200190620000b6929190620001ed565b508060029080519060200190620000cf929190620001ed565b50505033600b60006101000a81548173ffffffffffffffffffffffffffffffffffffffff021916908373ffffffffffffffffffffffffffffffffffffffff160217905550600a600c8190555062000301565b600033905090565b60008060009054906101000a900473ffffffffffffffffffffffffffffffffffffffff169050816000806101000a81548173ffffffffffffffffffffffffffffffffffffffff021916908373ffffffffffffffffffffffffffffffffffffffff1602179055508173ffffffffffffffffffffffffffffffffffffffff168173ffffffffffffffffffffffffffffffffffffffff167f8be0079c531659141344cd1fd0a4f28419497f9722a3daafe3b4186f6b6457e060405160405180910390a35050565b828054620001fb90620002cc565b90600052602060002090601f0160209004810192826200021f57600085556200026b565b82601f106200023a57805160ff19168380011785556200026b565b828001600101855582156200026b579182015b828111156200026a5782518255916020019190600101906200024d565b5b5090506200027a91906200027e565b5090565b5b80821115620002995760008160009055506001016200027f565b5090565b7f4e487b7100000000000000000000000000000000000000000000000000000000600052602260045260246000fd5b60006002820490506001821680620002e557607f821691505b602082108103620002fb57620002fa6200029d565b5b50919050565b613e8b80620003116000396000f3fe608060405234801561001057600080fd5b50600436106101da5760003560e01c806370a0823111610104578063a22cb465116100a2578063dd2cec7f11610071578063dd2cec7f1461054e578063e8a96b461461057e578063e985e9c5146105ae578063f2fde38b146105de576101da565b8063a22cb465146104b5578063b88d4fde146104d1578063c87b56dd146104ed578063cef6d3681461051d576101da565b80638c7ea24b116100de5780638c7ea24b146104415780638da5cb5b1461045d5780639036c0501461047b57806395d89b4114610497576101da565b806370a08231146103eb578063715018a61461041b578063862440e214610425576101da565b806324d7806c1161017c57806342966c681161014b57806342966c681461036757806351cff8d9146103835780636352211e1461039f5780636d73e669146103cf576101da565b806324d7806c146102e15780632d3456701461031157806331ae450b1461032d57806342842e0e1461034b576101da565b8063095ea7b3116101b8578063095ea7b31461025d5780630d4d1513146102795780631233ce8d1461029557806323b872dd146102c5576101da565b806301ffc9a7146101df57806306fdde031461020f578063081812fc1461022d575b600080fd5b6101f960048036038101906101f491906129d4565b6105fa565b6040516102069190612a1c565b60405180910390f35b610217610694565b6040516102249190612ad0565b60405180910390f35b61024760048036038101906102429190612b28565b610726565b6040516102549190612b96565b60405180910390f35b61027760048036038101906102729190612bdd565b6107ab565b005b610293600480360381019061028e9190612c1d565b6108c2565b005b6102af60048036038101906102aa9190612b28565b61097b565b6040516102bc9190612ad0565b60405180910390f35b6102df60048036038101906102da9190612c70565b610a1b565b005b6102fb60048036038101906102f69190612cc3565b610a7b565b6040516103089190612a1c565b60405180910390f35b61032b60048036038101906103269190612cc3565b610ad5565b005b610335610bdd565b6040516103429190612dae565b60405180910390f35b61036560048036038101906103609190612c70565b610cbf565b005b610381600480360381019061037c9190612b28565b610cdf565b005b61039d60048036038101906103989190612cc3565b610ceb565b005b6103b960048036038101906103b49190612b28565b610dc5565b6040516103c69190612b96565b60405180910390f35b6103e960048036038101906103e49190612cc3565b610ea3565b005b61040560048036038101906104009190612cc3565b610faa565b6040516104129190612ddf565b60405180910390f35b610423611061565b005b61043f600480360381019061043a9190612e5f565b6110e9565b005b61045b60048036038101906104569190612efd565b6111a1565b005b61046561127d565b6040516104729190612b96565b60405180910390f35b61049560048036038101906104909190612f3d565b6112a6565b005b61049f61138c565b6040516104ac9190612ad0565b60405180910390f35b6104cf60048036038101906104ca9190612fa9565b61141e565b005b6104eb60048036038101906104e69190613119565b611434565b005b61050760048036038101906105029190612b28565b611496565b6040516105149190612ad0565b60405180910390f35b61053760048036038101906105329190612b28565b61153b565b60405161054592919061319c565b60405180910390f35b61056860048036038101906105639190612b28565b6115e7565b6040516105759190612b96565b60405180910390f35b61059860048036038101906105939190612b28565b61161a565b6040516105a59190612b96565b60405180910390f35b6105c860048036038101906105c391906131c5565b611657565b6040516105d59190612a1c565b60405180910390f35b6105f860048036038101906105f39190612cc3565b6116eb565b005b6000610605826117e2565b8061061557506106148261185c565b5b8061067d57507f2a55205a000000000000000000000000000000000000000000000000000000007bffffffffffffffffffffffffffffffffffffffffffffffffffffffff1916827bffffffffffffffffffffffffffffffffffffffffffffffffffffffff1916145b8061068d575061068c826117e2565b5b9050919050565b6060600180546106a390613234565b80601f01602080910402602001604051908101604052809291908181526020018280546106cf90613234565b801561071c5780601f106106f15761010080835404028352916020019161071c565b820191906000526020600020905b8154815290600101906020018083116106ff57829003601f168201915b5050505050905090565b60006107318261193e565b610770576040517f08c379a0000000000000000000000000000000000000000000000000000000008152600401610767906132d7565b60405180910390fd5b6005600083815260200190815260200160002060009054906101000a900473ffffffffffffffffffffffffffffffffffffffff169050919050565b60006107b6826119aa565b90508073ffffffffffffffffffffffffffffffffffffffff168373ffffffffffffffffffffffffffffffffffffffff1603610826576040517f08c379a000000000000000000000000000000000000000000000000000000000815260040161081d90613369565b60405180910390fd5b8073ffffffffffffffffffffffffffffffffffffffff16610845611a5b565b73ffffffffffffffffffffffffffffffffffffffff16148061087457506108738161086e611a5b565b611657565b5b6108b3576040517f08c379a00000000000000000000000000000000000000000000000000000000081526004016108aa906133fb565b60405180910390fd5b6108bd8383611a63565b505050565b3373ffffffffffffffffffffffffffffffffffffffff166108e161127d565b73ffffffffffffffffffffffffffffffffffffffff1614806109135750610912336007611b1c90919063ffffffff16565b5b610952576040517f08c379a00000000000000000000000000000000000000000000000000000000081526004016109499061348d565b60405180910390fd5b61096c838360405180602001604052806000815250611b4c565b61097682826112a6565b505050565b6009602052806000526040600020600091509050805461099a90613234565b80601f01602080910402602001604051908101604052809291908181526020018280546109c690613234565b8015610a135780601f106109e857610100808354040283529160200191610a13565b820191906000526020600020905b8154815290600101906020018083116109f657829003601f168201915b505050505081565b610a2c610a26611a5b565b82611ba7565b610a6b576040517f08c379a0000000000000000000000000000000000000000000000000000000008152600401610a629061351f565b60405180910390fd5b610a76838383611c85565b505050565b60008173ffffffffffffffffffffffffffffffffffffffff16610a9c61127d565b73ffffffffffffffffffffffffffffffffffffffff161480610ace5750610acd826007611b1c90919063ffffffff16565b5b9050919050565b610add611a5b565b73ffffffffffffffffffffffffffffffffffffffff16610afb61127d565b73ffffffffffffffffffffffffffffffffffffffff1614610b51576040517f08c379a0000000000000000000000000000000000000000000000000000000008152600401610b489061358b565b60405180910390fd5b610b65816007611b1c90919063ffffffff16565b15610bda573373ffffffffffffffffffffffffffffffffffffffff168173ffffffffffffffffffffffffffffffffffffffff167f7c0c3c84c67c85fcac635147348bfe374c24a1a93d0366d1cfe9d8853cbf89d560405160405180910390a3610bd8816007611ee090919063ffffffff16565b505b50565b6060610be96007611f10565b67ffffffffffffffff811115610c0257610c01612fee565b5b604051908082528060200260200182016040528015610c305781602001602082028036833780820191505090505b50905060005b610c406007611f10565b811015610cbb57610c5b816007611f2590919063ffffffff16565b828281518110610c6e57610c6d6135ab565b5b602002602001019073ffffffffffffffffffffffffffffffffffffffff16908173ffffffffffffffffffffffffffffffffffffffff16815250508080610cb390613609565b915050610c36565b5090565b610cda83838360405180602001604052806000815250611434565b505050565b610ce881611f3f565b50565b3373ffffffffffffffffffffffffffffffffffffffff16610d0a61127d565b73ffffffffffffffffffffffffffffffffffffffff161480610d3c5750610d3b336007611b1c90919063ffffffff16565b5b610d7b576040517f08c379a0000000000000000000000000000000000000000000000000000000008152600401610d729061348d565b60405180910390fd5b8073ffffffffffffffffffffffffffffffffffffffff166108fc479081150290604051600060405180830381858888f19350505050158015610dc1573d6000803e3d6000fd5b5050565b60008073ffffffffffffffffffffffffffffffffffffffff16600a600084815260200190815260200160002060009054906101000a900473ffffffffffffffffffffffffffffffffffffffff1673ffffffffffffffffffffffffffffffffffffffff1603610e68576040517f08c379a0000000000000000000000000000000000000000000000000000000008152600401610e5f9061369d565b60405180910390fd5b600a600083815260200190815260200160002060009054906101000a900473ffffffffffffffffffffffffffffffffffffffff169050919050565b610eab611a5b565b73ffffffffffffffffffffffffffffffffffffffff16610ec961127d565b73ffffffffffffffffffffffffffffffffffffffff1614610f1f576040517f08c379a0000000000000000000000000000000000000000000000000000000008152600401610f169061358b565b60405180910390fd5b610f33816007611b1c90919063ffffffff16565b610fa7573373ffffffffffffffffffffffffffffffffffffffff168173ffffffffffffffffffffffffffffffffffffffff167f7e1a1a08d52e4ba0e21554733d66165fd5151f99460116223d9e3a608eec5cb160405160405180910390a3610fa581600761205090919063ffffffff16565b505b50565b60008073ffffffffffffffffffffffffffffffffffffffff168273ffffffffffffffffffffffffffffffffffffffff160361101a576040517f08c379a00000000000000000000000000000000000000000000000000000000081526004016110119061372f565b60405180910390fd5b600460008373ffffffffffffffffffffffffffffffffffffffff1673ffffffffffffffffffffffffffffffffffffffff168152602001908152602001600020549050919050565b611069611a5b565b73ffffffffffffffffffffffffffffffffffffffff1661108761127d565b73ffffffffffffffffffffffffffffffffffffffff16146110dd576040517f08c379a00000000000000000000000000000000000000000000000000000000081526004016110d49061358b565b60405180910390fd5b6110e76000612080565b565b3373ffffffffffffffffffffffffffffffffffffffff1661110861127d565b73ffffffffffffffffffffffffffffffffffffffff16148061113a5750611139336007611b1c90919063ffffffff16565b5b611179576040517f08c379a00000000000000000000000000000000000000000000000000000000081526004016111709061348d565b60405180910390fd5b818160096000868152602001908152602001600020919061119b9291906128c5565b50505050565b3373ffffffffffffffffffffffffffffffffffffffff166111c061127d565b73ffffffffffffffffffffffffffffffffffffffff1614806111f257506111f1336007611b1c90919063ffffffff16565b5b611231576040517f08c379a00000000000000000000000000000000000000000000000000000000081526004016112289061348d565b60405180910390fd5b81600b60006101000a81548173ffffffffffffffffffffffffffffffffffffffff021916908373ffffffffffffffffffffffffffffffffffffffff16021790555080600c819055505050565b60008060009054906101000a900473ffffffffffffffffffffffffffffffffffffffff16905090565b3373ffffffffffffffffffffffffffffffffffffffff166112c561127d565b73ffffffffffffffffffffffffffffffffffffffff1614806112f757506112f6336007611b1c90919063ffffffff16565b5b611336576040517f08c379a000000000000000000000000000000000000000000000000000000000815260040161132d9061348d565b60405180910390fd5b80600a600084815260200190815260200160002060006101000a81548173ffffffffffffffffffffffffffffffffffffffff021916908373ffffffffffffffffffffffffffffffffffffffff1602179055505050565b60606002805461139b90613234565b80601f01602080910402602001604051908101604052809291908181526020018280546113c790613234565b80156114145780601f106113e957610100808354040283529160200191611414565b820191906000526020600020905b8154815290600101906020018083116113f757829003601f168201915b5050505050905090565b611430611429611a5b565b8383612144565b5050565b61144561143f611a5b565b83611ba7565b611484576040517f08c379a000000000000000000000000000000000000000000000000000000000815260040161147b9061351f565b60405180910390fd5b611490848484846122b0565b50505050565b60606009600083815260200190815260200160002080546114b690613234565b80601f01602080910402602001604051908101604052809291908181526020018280546114e290613234565b801561152f5780601f106115045761010080835404028352916020019161152f565b820191906000526020600020905b81548152906001019060200180831161151257829003601f168201915b50505050509050919050565b600080600073ffffffffffffffffffffffffffffffffffffffff16600b60009054906101000a900473ffffffffffffffffffffffffffffffffffffffff1673ffffffffffffffffffffffffffffffffffffffff16146115da57600b60009054906101000a900473ffffffffffffffffffffffffffffffffffffffff166064600c54856115c7919061374f565b6115d191906137d8565b915091506115e2565b600080915091505b915091565b600a6020528060005260406000206000915054906101000a900473ffffffffffffffffffffffffffffffffffffffff1681565b6000600a600083815260200190815260200160002060009054906101000a900473ffffffffffffffffffffffffffffffffffffffff169050919050565b6000600660008473ffffffffffffffffffffffffffffffffffffffff1673ffffffffffffffffffffffffffffffffffffffff16815260200190815260200160002060008373ffffffffffffffffffffffffffffffffffffffff1673ffffffffffffffffffffffffffffffffffffffff16815260200190815260200160002060009054906101000a900460ff16905092915050565b6116f3611a5b565b73ffffffffffffffffffffffffffffffffffffffff1661171161127d565b73ffffffffffffffffffffffffffffffffffffffff1614611767576040517f08c379a000000000000000000000000000000000000000000000000000000000815260040161175e9061358b565b60405180910390fd5b600073ffffffffffffffffffffffffffffffffffffffff168173ffffffffffffffffffffffffffffffffffffffff16036117d6576040517f08c379a00000000000000000000000000000000000000000000000000000000081526004016117cd9061387b565b60405180910390fd5b6117df81612080565b50565b60007f553e757e000000000000000000000000000000000000000000000000000000007bffffffffffffffffffffffffffffffffffffffffffffffffffffffff1916827bffffffffffffffffffffffffffffffffffffffffffffffffffffffff1916148061185557506118548261185c565b5b9050919050565b60007f80ac58cd000000000000000000000000000000000000000000000000000000007bffffffffffffffffffffffffffffffffffffffffffffffffffffffff1916827bffffffffffffffffffffffffffffffffffffffffffffffffffffffff1916148061192757507f5b5e139f000000000000000000000000000000000000000000000000000000007bffffffffffffffffffffffffffffffffffffffffffffffffffffffff1916827bffffffffffffffffffffffffffffffffffffffffffffffffffffffff1916145b8061193757506119368261230c565b5b9050919050565b60008073ffffffffffffffffffffffffffffffffffffffff166003600084815260200190815260200160002060009054906101000a900473ffffffffffffffffffffffffffffffffffffffff1673ffffffffffffffffffffffffffffffffffffffff1614159050919050565b6000806003600084815260200190815260200160002060009054906101000a900473ffffffffffffffffffffffffffffffffffffffff169050600073ffffffffffffffffffffffffffffffffffffffff168173ffffffffffffffffffffffffffffffffffffffff1603611a52576040517f08c379a0000000000000000000000000000000000000000000000000000000008152600401611a499061390d565b60405180910390fd5b80915050919050565b600033905090565b816005600083815260200190815260200160002060006101000a81548173ffffffffffffffffffffffffffffffffffffffff021916908373ffffffffffffffffffffffffffffffffffffffff160217905550808273ffffffffffffffffffffffffffffffffffffffff16611ad6836119aa565b73ffffffffffffffffffffffffffffffffffffffff167f8c5be1e5ebec7d5bd14f71427d1e84f3dd0314c0f7b2291e5b200ac8c7c3b92560405160405180910390a45050565b6000611b44836000018373ffffffffffffffffffffffffffffffffffffffff1660001b612376565b905092915050565b611b568383612399565b611b636000848484612566565b611ba2576040517f08c379a0000000000000000000000000000000000000000000000000000000008152600401611b999061399f565b60405180910390fd5b505050565b6000611bb28261193e565b611bf1576040517f08c379a0000000000000000000000000000000000000000000000000000000008152600401611be890613a31565b60405180910390fd5b6000611bfc836119aa565b90508073ffffffffffffffffffffffffffffffffffffffff168473ffffffffffffffffffffffffffffffffffffffff161480611c6b57508373ffffffffffffffffffffffffffffffffffffffff16611c5384610726565b73ffffffffffffffffffffffffffffffffffffffff16145b80611c7c5750611c7b8185611657565b5b91505092915050565b8273ffffffffffffffffffffffffffffffffffffffff16611ca5826119aa565b73ffffffffffffffffffffffffffffffffffffffff1614611cfb576040517f08c379a0000000000000000000000000000000000000000000000000000000008152600401611cf290613ac3565b60405180910390fd5b600073ffffffffffffffffffffffffffffffffffffffff168273ffffffffffffffffffffffffffffffffffffffff1603611d6a576040517f08c379a0000000000000000000000000000000000000000000000000000000008152600401611d6190613b55565b60405180910390fd5b611d758383836126ed565b611d80600082611a63565b6001600460008573ffffffffffffffffffffffffffffffffffffffff1673ffffffffffffffffffffffffffffffffffffffff1681526020019081526020016000206000828254611dd09190613b75565b925050819055506001600460008473ffffffffffffffffffffffffffffffffffffffff1673ffffffffffffffffffffffffffffffffffffffff1681526020019081526020016000206000828254611e279190613ba9565b92505081905550816003600083815260200190815260200160002060006101000a81548173ffffffffffffffffffffffffffffffffffffffff021916908373ffffffffffffffffffffffffffffffffffffffff160217905550808273ffffffffffffffffffffffffffffffffffffffff168473ffffffffffffffffffffffffffffffffffffffff167fddf252ad1be2c89b69c2b068fc378daa952ba7f163c4a11628f55a4df523b3ef60405160405180910390a4505050565b6000611f08836000018373ffffffffffffffffffffffffffffffffffffffff1660001b6126f2565b905092915050565b6000611f1e82600001612806565b9050919050565b6000611f348360000183612817565b60001c905092915050565b6000611f4a826119aa565b9050611f58816000846126ed565b611f63600083611a63565b6001600460008373ffffffffffffffffffffffffffffffffffffffff1673ffffffffffffffffffffffffffffffffffffffff1681526020019081526020016000206000828254611fb39190613b75565b925050819055506003600083815260200190815260200160002060006101000a81549073ffffffffffffffffffffffffffffffffffffffff021916905581600073ffffffffffffffffffffffffffffffffffffffff168273ffffffffffffffffffffffffffffffffffffffff167fddf252ad1be2c89b69c2b068fc378daa952ba7f163c4a11628f55a4df523b3ef60405160405180910390a45050565b6000612078836000018373ffffffffffffffffffffffffffffffffffffffff1660001b612842565b905092915050565b60008060009054906101000a900473ffffffffffffffffffffffffffffffffffffffff169050816000806101000a81548173ffffffffffffffffffffffffffffffffffffffff021916908373ffffffffffffffffffffffffffffffffffffffff1602179055508173ffffffffffffffffffffffffffffffffffffffff168173ffffffffffffffffffffffffffffffffffffffff167f8be0079c531659141344cd1fd0a4f28419497f9722a3daafe3b4186f6b6457e060405160405180910390a35050565b8173ffffffffffffffffffffffffffffffffffffffff168373ffffffffffffffffffffffffffffffffffffffff16036121b2576040517f08c379a00000000000000000000000000000000000000000000000000000000081526004016121a990613c4b565b60405180910390fd5b80600660008573ffffffffffffffffffffffffffffffffffffffff1673ffffffffffffffffffffffffffffffffffffffff16815260200190815260200160002060008473ffffffffffffffffffffffffffffffffffffffff1673ffffffffffffffffffffffffffffffffffffffff16815260200190815260200160002060006101000a81548160ff0219169083151502179055508173ffffffffffffffffffffffffffffffffffffffff168373ffffffffffffffffffffffffffffffffffffffff167f17307eab39ab6107e8899845ad3d59bd9653f200f220920489ca2b5937696c31836040516122a39190612a1c565b60405180910390a3505050565b6122bb848484611c85565b6122c784848484612566565b612306576040517f08c379a00000000000000000000000000000000000000000000000000000000081526004016122fd9061399f565b60405180910390fd5b50505050565b60007f01ffc9a7000000000000000000000000000000000000000000000000000000007bffffffffffffffffffffffffffffffffffffffffffffffffffffffff1916827bffffffffffffffffffffffffffffffffffffffffffffffffffffffff1916149050919050565b600080836001016000848152602001908152602001600020541415905092915050565b600073ffffffffffffffffffffffffffffffffffffffff168273ffffffffffffffffffffffffffffffffffffffff1603612408576040517f08c379a00000000000000000000000000000000000000000000000000000000081526004016123ff90613cb7565b60405180910390fd5b6124118161193e565b15612451576040517f08c379a000000000000000000000000000000000000000000000000000000000815260040161244890613d23565b60405180910390fd5b61245d600083836126ed565b6001600460008473ffffffffffffffffffffffffffffffffffffffff1673ffffffffffffffffffffffffffffffffffffffff16815260200190815260200160002060008282546124ad9190613ba9565b92505081905550816003600083815260200190815260200160002060006101000a81548173ffffffffffffffffffffffffffffffffffffffff021916908373ffffffffffffffffffffffffffffffffffffffff160217905550808273ffffffffffffffffffffffffffffffffffffffff16600073ffffffffffffffffffffffffffffffffffffffff167fddf252ad1be2c89b69c2b068fc378daa952ba7f163c4a11628f55a4df523b3ef60405160405180910390a45050565b60006125878473ffffffffffffffffffffffffffffffffffffffff166128b2565b156126e0578373ffffffffffffffffffffffffffffffffffffffff1663150b7a026125b0611a5b565b8786866040518563ffffffff1660e01b81526004016125d29493929190613d98565b6020604051808303816000875af192505050801561260e57506040513d601f19601f8201168201806040525081019061260b9190613df9565b60015b612690573d806000811461263e576040519150601f19603f3d011682016040523d82523d6000602084013e612643565b606091505b506000815103612688576040517f08c379a000000000000000000000000000000000000000000000000000000000815260040161267f9061399f565b60405180910390fd5b805181602001fd5b63150b7a0260e01b7bffffffffffffffffffffffffffffffffffffffffffffffffffffffff1916817bffffffffffffffffffffffffffffffffffffffffffffffffffffffff1916149150506126e5565b600190505b949350505050565b505050565b600080836001016000848152602001908152602001600020549050600081146127fa5760006001826127249190613b75565b905060006001866000018054905061273c9190613b75565b90508181146127ab57600086600001828154811061275d5761275c6135ab565b5b9060005260206000200154905080876000018481548110612781576127806135ab565b5b90600052602060002001819055508387600101600083815260200190815260200160002081905550505b856000018054806127bf576127be613e26565b5b600190038181906000526020600020016000905590558560010160008681526020019081526020016000206000905560019350505050612800565b60009150505b92915050565b600081600001805490509050919050565b600082600001828154811061282f5761282e6135ab565b5b9060005260206000200154905092915050565b600061284e8383612376565b6128a75782600001829080600181540180825580915050600190039060005260206000200160009091909190915055826000018054905083600101600084815260200190815260200160002081905550600190506128ac565b600090505b92915050565b600080823b905060008111915050919050565b8280546128d190613234565b90600052602060002090601f0160209004810192826128f3576000855561293a565b82601f1061290c57803560ff191683800117855561293a565b8280016001018555821561293a579182015b8281111561293957823582559160200191906001019061291e565b5b509050612947919061294b565b5090565b5b8082111561296457600081600090555060010161294c565b5090565b6000604051905090565b600080fd5b600080fd5b60007fffffffff0000000000000000000000000000000000000000000000000000000082169050919050565b6129b18161297c565b81146129bc57600080fd5b50565b6000813590506129ce816129a8565b92915050565b6000602082840312156129ea576129e9612972565b5b60006129f8848285016129bf565b91505092915050565b60008115159050919050565b612a1681612a01565b82525050565b6000602082019050612a316000830184612a0d565b92915050565b600081519050919050565b600082825260208201905092915050565b60005b83811015612a71578082015181840152602081019050612a56565b83811115612a80576000848401525b50505050565b6000601f19601f8301169050919050565b6000612aa282612a37565b612aac8185612a42565b9350612abc818560208601612a53565b612ac581612a86565b840191505092915050565b60006020820190508181036000830152612aea8184612a97565b905092915050565b6000819050919050565b612b0581612af2565b8114612b1057600080fd5b50565b600081359050612b2281612afc565b92915050565b600060208284031215612b3e57612b3d612972565b5b6000612b4c84828501612b13565b91505092915050565b600073ffffffffffffffffffffffffffffffffffffffff82169050919050565b6000612b8082612b55565b9050919050565b612b9081612b75565b82525050565b6000602082019050612bab6000830184612b87565b92915050565b612bba81612b75565b8114612bc557600080fd5b50565b600081359050612bd781612bb1565b92915050565b60008060408385031215612bf457612bf3612972565b5b6000612c0285828601612bc8565b9250506020612c1385828601612b13565b9150509250929050565b600080600060608486031215612c3657612c35612972565b5b6000612c4486828701612bc8565b9350506020612c5586828701612b13565b9250506040612c6686828701612bc8565b9150509250925092565b600080600060608486031215612c8957612c88612972565b5b6000612c9786828701612bc8565b9350506020612ca886828701612bc8565b9250506040612cb986828701612b13565b9150509250925092565b600060208284031215612cd957612cd8612972565b5b6000612ce784828501612bc8565b91505092915050565b600081519050919050565b600082825260208201905092915050565b6000819050602082019050919050565b612d2581612b75565b82525050565b6000612d378383612d1c565b60208301905092915050565b6000602082019050919050565b6000612d5b82612cf0565b612d658185612cfb565b9350612d7083612d0c565b8060005b83811015612da1578151612d888882612d2b565b9750612d9383612d43565b925050600181019050612d74565b5085935050505092915050565b60006020820190508181036000830152612dc88184612d50565b905092915050565b612dd981612af2565b82525050565b6000602082019050612df46000830184612dd0565b92915050565b600080fd5b600080fd5b600080fd5b60008083601f840112612e1f57612e1e612dfa565b5b8235905067ffffffffffffffff811115612e3c57612e3b612dff565b5b602083019150836001820283011115612e5857612e57612e04565b5b9250929050565b600080600060408486031215612e7857612e77612972565b5b6000612e8686828701612b13565b935050602084013567ffffffffffffffff811115612ea757612ea6612977565b5b612eb386828701612e09565b92509250509250925092565b6000612eca82612b55565b9050919050565b612eda81612ebf565b8114612ee557600080fd5b50565b600081359050612ef781612ed1565b92915050565b60008060408385031215612f1457612f13612972565b5b6000612f2285828601612ee8565b9250506020612f3385828601612b13565b9150509250929050565b60008060408385031215612f5457612f53612972565b5b6000612f6285828601612b13565b9250506020612f7385828601612bc8565b9150509250929050565b612f8681612a01565b8114612f9157600080fd5b50565b600081359050612fa381612f7d565b92915050565b60008060408385031215612fc057612fbf612972565b5b6000612fce85828601612bc8565b9250506020612fdf85828601612f94565b9150509250929050565b600080fd5b7f4e487b7100000000000000000000000000000000000000000000000000000000600052604160045260246000fd5b61302682612a86565b810181811067ffffffffffffffff8211171561304557613044612fee565b5b80604052505050565b6000613058612968565b9050613064828261301d565b919050565b600067ffffffffffffffff82111561308457613083612fee565b5b61308d82612a86565b9050602081019050919050565b82818337600083830152505050565b60006130bc6130b784613069565b61304e565b9050828152602081018484840111156130d8576130d7612fe9565b5b6130e384828561309a565b509392505050565b600082601f830112613100576130ff612dfa565b5b81356131108482602086016130a9565b91505092915050565b6000806000806080858703121561313357613132612972565b5b600061314187828801612bc8565b945050602061315287828801612bc8565b935050604061316387828801612b13565b925050606085013567ffffffffffffffff81111561318457613183612977565b5b613190878288016130eb565b91505092959194509250565b60006040820190506131b16000830185612b87565b6131be6020830184612dd0565b9392505050565b600080604083850312156131dc576131db612972565b5b60006131ea85828601612bc8565b92505060206131fb85828601612bc8565b9150509250929050565b7f4e487b7100000000000000000000000000000000000000000000000000000000600052602260045260246000fd5b6000600282049050600182168061324c57607f821691505b60208210810361325f5761325e613205565b5b50919050565b7f4552433732313a20617070726f76656420717565727920666f72206e6f6e657860008201527f697374656e7420746f6b656e0000000000000000000000000000000000000000602082015250565b60006132c1602c83612a42565b91506132cc82613265565b604082019050919050565b600060208201905081810360008301526132f0816132b4565b9050919050565b7f4552433732313a20617070726f76616c20746f2063757272656e74206f776e6560008201527f7200000000000000000000000000000000000000000000000000000000000000602082015250565b6000613353602183612a42565b915061335e826132f7565b604082019050919050565b6000602082019050818103600083015261338281613346565b9050919050565b7f4552433732313a20617070726f76652063616c6c6572206973206e6f74206f7760008201527f6e6572206e6f7220617070726f76656420666f7220616c6c0000000000000000602082015250565b60006133e5603883612a42565b91506133f082613389565b604082019050919050565b60006020820190508181036000830152613414816133d8565b9050919050565b7f41646d696e436f6e74726f6c3a204d757374206265206f776e6572206f72206160008201527f646d696e00000000000000000000000000000000000000000000000000000000602082015250565b6000613477602483612a42565b91506134828261341b565b604082019050919050565b600060208201905081810360008301526134a68161346a565b9050919050565b7f4552433732313a207472616e736665722063616c6c6572206973206e6f74206f60008201527f776e6572206e6f7220617070726f766564000000000000000000000000000000602082015250565b6000613509603183612a42565b9150613514826134ad565b604082019050919050565b60006020820190508181036000830152613538816134fc565b9050919050565b7f4f776e61626c653a2063616c6c6572206973206e6f7420746865206f776e6572600082015250565b6000613575602083612a42565b91506135808261353f565b602082019050919050565b600060208201905081810360008301526135a481613568565b9050919050565b7f4e487b7100000000000000000000000000000000000000000000000000000000600052603260045260246000fd5b7f4e487b7100000000000000000000000000000000000000000000000000000000600052601160045260246000fd5b600061361482612af2565b91507fffffffffffffffffffffffffffffffffffffffffffffffffffffffffffffffff8203613646576136456135da565b5b600182019050919050565b7f4552433732313a20696e76616c696420746f6b656e2049440000000000000000600082015250565b6000613687601883612a42565b915061369282613651565b602082019050919050565b600060208201905081810360008301526136b68161367a565b9050919050565b7f4552433732313a2062616c616e636520717565727920666f7220746865207a6560008201527f726f206164647265737300000000000000000000000000000000000000000000602082015250565b6000613719602a83612a42565b9150613724826136bd565b604082019050919050565b600060208201905081810360008301526137488161370c565b9050919050565b600061375a82612af2565b915061376583612af2565b9250817fffffffffffffffffffffffffffffffffffffffffffffffffffffffffffffffff048311821515161561379e5761379d6135da565b5b828202905092915050565b7f4e487b7100000000000000000000000000000000000000000000000000000000600052601260045260246000fd5b60006137e382612af2565b91506137ee83612af2565b9250826137fe576137fd6137a9565b5b828204905092915050565b7f4f776e61626c653a206e6577206f776e657220697320746865207a65726f206160008201527f6464726573730000000000000000000000000000000000000000000000000000602082015250565b6000613865602683612a42565b915061387082613809565b604082019050919050565b6000602082019050818103600083015261389481613858565b9050919050565b7f4552433732313a206f776e657220717565727920666f72206e6f6e657869737460008201527f656e7420746f6b656e0000000000000000000000000000000000000000000000602082015250565b60006138f7602983612a42565b91506139028261389b565b604082019050919050565b60006020820190508181036000830152613926816138ea565b9050919050565b7f4552433732313a207472616e7366657220746f206e6f6e20455243373231526560008201527f63656976657220696d706c656d656e7465720000000000000000000000000000602082015250565b6000613989603283612a42565b91506139948261392d565b604082019050919050565b600060208201905081810360008301526139b88161397c565b9050919050565b7f4552433732313a206f70657261746f7220717565727920666f72206e6f6e657860008201527f697374656e7420746f6b656e0000000000000000000000000000000000000000602082015250565b6000613a1b602c83612a42565b9150613a26826139bf565b604082019050919050565b60006020820190508181036000830152613a4a81613a0e565b9050919050565b7f4552433732313a207472616e73666572206f6620746f6b656e2074686174206960008201527f73206e6f74206f776e0000000000000000000000000000000000000000000000602082015250565b6000613aad602983612a42565b9150613ab882613a51565b604082019050919050565b60006020820190508181036000830152613adc81613aa0565b9050919050565b7f4552433732313a207472616e7366657220746f20746865207a65726f2061646460008201527f7265737300000000000000000000000000000000000000000000000000000000602082015250565b6000613b3f602483612a42565b9150613b4a82613ae3565b604082019050919050565b60006020820190508181036000830152613b6e81613b32565b9050919050565b6000613b8082612af2565b9150613b8b83612af2565b925082821015613b9e57613b9d6135da565b5b828203905092915050565b6000613bb482612af2565b9150613bbf83612af2565b9250827fffffffffffffffffffffffffffffffffffffffffffffffffffffffffffffffff03821115613bf457613bf36135da565b5b828201905092915050565b7f4552433732313a20617070726f766520746f2063616c6c657200000000000000600082015250565b6000613c35601983612a42565b9150613c4082613bff565b602082019050919050565b60006020820190508181036000830152613c6481613c28565b9050919050565b7f4552433732313a206d696e7420746f20746865207a65726f2061646472657373600082015250565b6000613ca1602083612a42565b9150613cac82613c6b565b602082019050919050565b60006020820190508181036000830152613cd081613c94565b9050919050565b7f4552433732313a20746f6b656e20616c7265616479206d696e74656400000000600082015250565b6000613d0d601c83612a42565b9150613d1882613cd7565b602082019050919050565b60006020820190508181036000830152613d3c81613d00565b9050919050565b600081519050919050565b600082825260208201905092915050565b6000613d6a82613d43565b613d748185613d4e565b9350613d84818560208601612a53565b613d8d81612a86565b840191505092915050565b6000608082019050613dad6000830187612b87565b613dba6020830186612b87565b613dc76040830185612dd0565b8181036060830152613dd98184613d5f565b905095945050505050565b600081519050613df3816129a8565b92915050565b600060208284031215613e0f57613e0e612972565b5b6000613e1d84828501613de4565b91505092915050565b7f4e487b7100000000000000000000000000000000000000000000000000000000600052603160045260246000fdfea2646970667358221220281a3b3004d91de37178201ee95726ac966a103833fe42372d46ced1171b640a64736f6c634300080d0033",
  "immutableReferences": {},
  "source": "// SPDX-License-Identifier: MIT\n\npragma solidity >= 0.8.13;\n\nimport \"@openzeppelin/contracts/token/ERC721/ERC721.sol\";\nimport \"@manifoldxyz/royalty-registry-solidity/contracts/specs/IEIP2981.sol\";\nimport \"@manifoldxyz/libraries-solidity/contracts/access/AdminControl.sol\";\nimport \"@openzeppelin/contracts/utils/Strings.sol\";\n\ncontract ShootingStar is ERC721, AdminControl {\n\n    mapping (uint256 => string ) public _uris;\n    mapping (uint256 => address ) public _holders;\n    address payable private _royalties_recipient;\n    uint256 private _royaltyAmount; //in % \n    constructor () ERC721(\"ShootingStar\", \"ShS\") {\n        _royalties_recipient = payable(msg.sender);\n        _royaltyAmount = 10;\n    }\n\n    function supportsInterface(bytes4 interfaceId)\n        public\n        view\n        virtual\n        override(ERC721, AdminControl)\n        returns (bool)\n    {\n        return\n        AdminControl.supportsInterface(interfaceId) ||\n        ERC721.supportsInterface(interfaceId) ||\n        interfaceId == type(IEIP2981).interfaceId ||\n        super.supportsInterface(interfaceId);\n    }\n\n    function transferNFT(uint256 tokenId, address holder) public adminRequired{\n        _holders[tokenId] = holder;\n    }\n\n    function getHolder(uint256 tokenId)view external returns(address){\n        return _holders[tokenId];\n    }\n\n    function mint(address to, uint256 tokenId, address holder) external adminRequired{\n        _safeMint(to, tokenId, \"\");\n        transferNFT(tokenId, holder);\n    }\n\n    function setURI(\n        uint256 tokenId,\n        string calldata updatedURI\n    ) external adminRequired{\n        _uris[tokenId] = updatedURI;\n    }\n\n    function tokenURI(uint256 tokenId) public view virtual override returns (string memory) {\n        return _uris[tokenId];\n    }\n\n    function ownerOf(uint256 tokenId) public view virtual override returns (address) {\n        require(_holders[tokenId] != address(0), \"ERC721: invalid token ID\");\n        return _holders[tokenId];\n    }\n\n    function burn(uint256 tokenId) public {\n        _burn(tokenId);\n    }\n\n    function setRoyalties(address payable _recipient, uint256 _royaltyPerCent) external adminRequired {\n        _royalties_recipient = _recipient;\n        _royaltyAmount = _royaltyPerCent;\n    }\n\n    function royaltyInfo(uint256 salePrice) external view returns (address, uint256) {\n        if(_royalties_recipient != address(0)){\n            return (_royalties_recipient, (salePrice * _royaltyAmount) / 100 );\n        }\n        return (address(0), 0);\n    }\n\n    function withdraw(address recipient) external adminRequired {\n        payable(recipient).transfer(address(this).balance);\n    }\n\n}",
  "sourcePath": "/Users/bct/Documents/Dev/NFT_dev/Blackhole/contracts/ShootingStar.sol",
  "compiler": {
    "name": "solc",
    "version": "0.8.13+commit.abaa5c0e.Emscripten.clang"
  },
  "schemaVersion": "3.4.4",
  "updatedAt": "2022-06-16T16:08:40.017Z",
  "devdoc": {
    "kind": "dev",
    "methods": {
      "approve(address,uint256)": {
        "details": "See {IERC721-approve}."
      },
      "approveAdmin(address)": {
        "details": "See {IAdminControl-approveAdmin}."
      },
      "balanceOf(address)": {
        "details": "See {IERC721-balanceOf}."
      },
      "getAdmins()": {
        "details": "See {IAdminControl-getAdmins}."
      },
      "getApproved(uint256)": {
        "details": "See {IERC721-getApproved}."
      },
      "isAdmin(address)": {
        "details": "See {IAdminControl-isAdmin}."
      },
      "isApprovedForAll(address,address)": {
        "details": "See {IERC721-isApprovedForAll}."
      },
      "name()": {
        "details": "See {IERC721Metadata-name}."
      },
      "owner()": {
        "details": "Returns the address of the current owner."
      },
      "ownerOf(uint256)": {
        "details": "See {IERC721-ownerOf}."
      },
      "renounceOwnership()": {
        "details": "Leaves the contract without owner. It will not be possible to call `onlyOwner` functions anymore. Can only be called by the current owner. NOTE: Renouncing ownership will leave the contract without an owner, thereby removing any functionality that is only available to the owner."
      },
      "revokeAdmin(address)": {
        "details": "See {IAdminControl-revokeAdmin}."
      },
      "safeTransferFrom(address,address,uint256)": {
        "details": "See {IERC721-safeTransferFrom}."
      },
      "safeTransferFrom(address,address,uint256,bytes)": {
        "details": "See {IERC721-safeTransferFrom}."
      },
      "setApprovalForAll(address,bool)": {
        "details": "See {IERC721-setApprovalForAll}."
      },
      "symbol()": {
        "details": "See {IERC721Metadata-symbol}."
      },
      "tokenURI(uint256)": {
        "details": "See {IERC721Metadata-tokenURI}."
      },
      "transferFrom(address,address,uint256)": {
        "details": "See {IERC721-transferFrom}."
      },
      "transferOwnership(address)": {
        "details": "Transfers ownership of the contract to a new account (`newOwner`). Can only be called by the current owner."
      }
    },
    "version": 1
  },
  "userdoc": {
    "kind": "user",
    "methods": {},
    "version": 1
  }
}